:020000040000FA
:10000000C80D0020B10D0000BB0D0000BD0D0000AB
:10001000BF0D0000BF0D0000BF0D0000BF0D0000B0
:10002000BF0D0000BF0D0000BF0D0000BF0D0000A0
:10003000BF0D0000BF0D0000078100000983000014
:10004000690C0000730C00007D0C0000870C0000A0
:10005000910C00009B0C0000A50C0000AF0C0000F0
:10006000B90C0000C30C0000CD0C0000D70C000040
:10007000E10C0000EB0C0000F50C0000FF0C000090
:10008000090D0000130D00001D0D0000270D0000DC
:10009000310D00003B0D0000450D00004F0D00002C
:1000A000590D0000630D00006D0D0000770D00007C
:1000B000810D00008B0D0000950D00009F0D0000CC
:1000C00000F002F800F03EF80CA030C80838241800
:1000D0002D18A246671EAB4654465D46AC4201D180
:1000E00000F030F87E460F3E0FCCB6460126334274
:1000F00000D0FB1AA246AB4633431847E4930000F6
:1001000004940000103A02D378C878C1FAD8520794
:1001100001D330C830C101D504680C6070470000BD
:100120000023002400250026103A01D378C1FBD813
:10013000520700D330C100D50B6070471FB51FBDFB
:1001400010B510BD08F0C5FF1146FFF7F7FF00F02E
:1001500099F808F0DDFF03B4FFF7F2FF03BC08F0E5
:10016000E1FF00000EB50CE06A496B4800F037FC77
:1001700002A8002132230A4600910190084607F0A8
:10018000F7FAF1E70EB50020644908706449087079
:10019000644908706449087015E0002000906248C6
:1001A0000378604802785E4801785C48007800F087
:1001B000C6FE02A80021FF2391330A460091019058
:1001C000084607F0D5FAE8E700B58BB00AA8032186
:1001D00000220592069207910890104680210C2279
:1001E000524B019302920391049004200023504A41
:1001F00050A10090524805F0A4FF0AA80321002254
:100200000592069207910890104680210C224D4BD2
:100210000193029203910490052000234A4A4BA1C6
:1002200000904E4805F08DFF0BB000BD704708B53B
:1002300000F00DFB00F042FB00F009FE684605F0FF
:10024000DFFB08F0F5F9FFF7F1FFFFF7BDFF18E05E
:1002500004E06A460021012007F030FA012000F096
:1002600093FB0128F5D1022000F062FB04E06A460E
:100270000021012007F022FA012000F085FB002870
:10028000F5D0E5E78CB008F031F901F0DBF801F0CA
:1002900075F80AA932A008F05CF900F06EFC0BA812
:1002A00002F085FB0BA8032100220592069207911C
:1002B0000890104680210C222D4B0193029203914D
:1002C0000490022000232B4A2BA100902E4805F019
:1002D00038FF0BA802F099FD00BFFEE70EB517E04E
:1002E000022000F025FB02A800210B46022200910B
:1002F0000190084607F03CFA012000F019FB02A823
:1003000000210B46022200910190084607F030FAC6
:10031000E6E7000005E0FF1F04E0FF1F00E0FF1F0D
:1003200001E0FF1F02E0FF1F03E0FF1FA0E4FF1F2B
:10033000850100004C4344205461736B00000000B1
:10034000E4E3FF1F5CE7FF1F6501000054534920F1
:10035000536C69646572205461736B00A0E6FF1FE3
:100360004D4B4C34365A323536564C4C3400000026
:10037000E4E1FF1F2F020000537461727475702056
:100380005461736B0000000028E1FF1F10B500F0FE
:100390005CFA0446A100601808F027F910BD00209F
:1003A00070477FB5044600F050FA00210391029097
:1003B000094A00230399029808F05AFD02460B46A9
:1003C000019100902046002108F052FD05460E469E
:1003D0002846314604B070BD40420F00704700000F
:1003E00072B6704762B67047EFF3108072B670470E
:1003F00080F31088704730BF704720BF7047704748
:10040000FFFFFFFFFFFFFFFFFFFFFFFFFEFFFFFFFD
:10041000FE48806B01210843FC4988630020FC49A9
:10042000086008204860052008607047F948007A95
:100430000E218843F7490872084640780121084395
:10044000F44948700846007802210843F1490870D1
:1004500000BFF0488079C007C00F002802D100BF5C
:10046000012000E000200028F3D1704710B5EA4ACF
:10047000126804231A43E84B1A601A461268802354
:100480009A43E54B1A601A46126810231A40002A54
:1004900001D0012100E00021DF4A126810239A43B5
:1004A000DD4B1A601A46126840239A43DA4B1A60F1
:1004B0001A46126880231A43D74B1A60002023E0A3
:1004C0000C224243D54B9A5C1207D34B5A601A4612
:1004D000526801239B051A43CF4B5A6000BFCE4A96
:1004E000126804231A40002AF9D0CB4A12681A4332
:1004F000C94B1A601A46526894B20C224243C74B49
:10050000D2181481421CD0B20228D9D3C24A126830
:1005100080239A43C04B1A601A46126840231A433C
:10052000BD4B1A60002906D01A46126810231A43E0
:10053000B94B1A6005E0B84A126810239A43B64BCB
:100540001A60B54A126880231A43B34B1A600C2212
:100550004243B24B9A5C1207AF4B5A601A4652683C
:1005600001239B051A43AC4B5A6010BD0121AB4AD5
:10057000921E5170A849096804221143A64A1160CD
:10058000114649688BB2A549891E09780C2251434E
:10059000A24A89188B80911E09780C2251439F4AE8
:1005A00089188B88911E09780C2251439B4A89181F
:1005B0000989591A08B2002808DA0023911E09781F
:1005C0000C225143954A8918CB8007E09349891E34
:1005D00009780C225143914A8918C8808F49891E95
:1005E0000978012907D28D49891E0978491C8B4A4F
:1005F000921E117003E00021884A921E11708749F3
:10060000891E09780C225143844A515C0907824AA9
:100610005160114649680122920511437E4A51609A
:10062000704710B500207D49891E487009208870E8
:100630000A217A48801E8173642181800182734877
:10064000806B202108437149886300207449086049
:10065000486074491A2000F09EFA1A2000F091FABE
:100660006D480068704908436B4908600846006897
:100670008021084368490860FFF7F8FE10BDFF209D
:1006800004306A49C86008636948406908218843A2
:100690006749486108464069012109038843644964
:1006A00048617047002817D0012802D0022825D1C0
:1006B00008E05F4940314968202211435C4A4032DA
:1006C00051601CE05A4980314968012252071143A8
:1006D000574A8032516012E0554940314968202222
:1006E0001143534A403251605149803149680122D7
:1006F000520711434E4A8032516000E0704700BFFC
:1007000000BFFBE700B5FF2001304A4948614A4974
:1007100048634748403040692021084344494031FC
:1007200048614348803040690121490708434049F6
:10073000803148610020FFF7B5FF00BD38B50024C7
:1007400000BF00BFFFF750FE044600BF07F062FE87
:1007500000BF3A482D494031486094202D494870E7
:100760009820087000BF2B4880791021084010287D
:1007700002D100BF012000E000200028F3D100BF1B
:10078000244880791C2108408008009000980228A5
:10079000F6D103201F4908717820487100BF1D4819
:1007A000807920210840002802D100BF012000E00C
:1007B00000200028F3D100BF16488079402108406E
:1007C000002802D100BF012000E000200028F3D162
:1007D00010480078FF21C13188430E49087000BFDE
:1007E0000C4880791C21084080080090009803285C
:1007F000F6D10648406801210904084303494860CE
:1008000000BF07F0E7FD00BF204619E0008004406C
:100810000000044000400640005004401AECFF1F56
:1008200040A004406D050000608B871000B00440BC
:1008300080F00F4000C0044040D004400000011090
:10084000FFF7D6FD00BF00BF38BDBB48704710B5ED
:1008500000F0DDF9B948806B1F2149020843B74910
:100860008863B748B74948610846006904210843CE
:10087000B44908610846006902210843B14908618A
:100880000846006901210843AE490861FFF7DDFF12
:100890000446AD4908F06DFBAC49086008460068A5
:1008A0000860FFF74BFFFFF72DFFFFF7E8FEFFF7AC
:1008B000B8FEFFF7BBFDFFF7ABFD10BD70B5FFF74E
:1008C000C4FF0446A2480168204608F052FB0546D2
:1008D000284607F037FD70BD002815D0012802D04A
:1008E000022821D106E09B49896820221143994AB8
:1008F00091601AE0974940318968012252071143FB
:10090000944A4032916010E0924989682022114354
:10091000904A91608F494031896801225207114302
:100920008C4A4032916000E0704700BF00BFFBE797
:10093000002815D0012802D0022821D106E08549DF
:10094000C96820221143834AD1601AE081494031AD
:10095000C9680122520711437E4A4032D16010E03B
:100960007C49C968202211437A4AD16079494031D3
:10097000C968012252071143764A4032D16000E033
:10098000704700BF00BFFBE70146012902D00229E2
:1009900021D10FE06F48403800690822104000283C
:1009A00002D100BF012000E00020002801D001207A
:1009B000704711E067484038006901221203104077
:1009C000002802D100BF012000E00020002801D053
:1009D0000120EDE700E000BF00BF0020E8E770B5B0
:1009E00004460D465C48407801285ED100205A49F3
:1009F0004870084601898088814204DC5648818A13
:100A0000008A814248DD544A1389928A9918524AD1
:100A1000128964235A43104608F0B5FAC1B24E4811
:100A2000017302461389928A99180246928A6423B6
:100A30005A43104608F0A7FAC1B24748017601466A
:100A4000097B282251430846642108F092FAC1B27A
:100A5000414841730146097E2822514308466421DA
:100A600008F087FAC1B23C4841760146097B64220E
:100A7000521A0146097E5018C10F0918C905090EFE
:100A800029703548407B2821091A3348407E0818D0
:100A9000C005000E207008E000212F480173017688
:100AA0004173417600202870207070BD10B5024659
:100AB0007D23DB00534358181DE00023274CE360DF
:100AC0002346DB68264C1B19244CA36023461B6875
:100AD00080242343214C236000BF204B1B688024CB
:100AE0002340002B02D100BF012300E00023002B94
:100AF000F3D11B4BC01A1A4B9842DED8002819D0EC
:100B00000023164CE3602346DB681B18A3602346D2
:100B10001B6880242343114C236000BF0F4B1B68CC
:100B200080242340002B02D100BF012300E00023DA
:100B3000002BF3D110BD0000006CDC0200800440EB
:100B400080841E0000E000E040420F0008E0FF1F2C
:100B500040920000C0F00F4018ECFF1F000004405E
:100B6000FFFF0000704710B504466A2C04D22146EE
:100B70001031C8B207F0EAFE10BD10B5FFF730FC27
:100B800010BD10B504466A2C04D221461031C8B2FB
:100B900007F041FF10BD70B504460D4600266A2CD3
:100BA00014D200BF00BFFFF71FFC064600BF07F0CE
:100BB00031FC00BFA0007C490D5000BF07F00AFCCB
:100BC00000BF3046FFF714FC00BF00BF70BD70B51A
:100BD00004460D4600266A2C17D200BF00BFFFF75F
:100BE00003FC064600BF07F015FC00BF214610318C
:100BF000C8B2294607F0C2FF00BF07F0EBFB00BFF9
:100C00003046FFF7F5FB00BF00BF70BD704710B561
:100C1000002404E065492046FFF7BDFF641C6A2CF0
:100C2000F8D310BD70B50446002600BF00BFFFF723
:100C3000DBFB064600BF07F0EDFB00BF01F04BFFFA
:100C400000BF07F0C7FB00BF3046FFF7D1FB00BF76
:100C500000BF6A2C05D2A00053490D58002D00D0CA
:100C6000A84701F049FF70BD10B50020FFF7DAFF7B
:100C700010BD10B50120FFF7D5FF10BD10B5022043
:100C8000FFF7D0FF10BD10B50320FFF7CBFF10BD5D
:100C900010B50420FFF7C6FF10BD10B50520FFF703
:100CA000C1FF10BD10B50620FFF7BCFF10BD10B589
:100CB0000720FFF7B7FF10BD10B50820FFF7B2FF00
:100CC00010BD10B50920FFF7ADFF10BD10B50A200B
:100CD000FFF7A8FF10BD10B50B20FFF7A3FF10BD55
:100CE00010B50C20FFF79EFF10BD10B50D20FFF7CB
:100CF00099FF10BD10B50E20FFF794FF10BD10B581
:100D00000F20FFF78FFF10BD10B51020FFF78AFFEF
:100D100010BD10B51120FFF785FF10BD10B51220D2
:100D2000FFF780FF10BD10B51320FFF77BFF10BD4C
:100D300010B51420FFF776FF10BD10B51520FFF792
:100D400071FF10BD10B51620FFF76CFF10BD10B578
:100D50001720FFF767FF10BD10B51820FFF762FFDF
:100D600010BD10B51920FFF75DFF10BD10B51A209A
:100D7000FFF758FF10BD10B51B20FFF753FF10BD44
:100D800010B51C20FFF74EFF10BD10B51D20FFF75A
:100D900049FF10BD10B51E20FFF744FF10BD10B570
:100DA0001F20FFF73FFF10BD34ECFF1F0D0C0000AC
:100DB00000200649086006480047FEE7FEE7FEE718
:100DC00004480549034A054B704700000081044070
:100DD000C1000000C80C0020C80D0020C80C002075
:100DE000B7484068FF2109028843B5494860B448C4
:100DF0004038006BFF2109028843B149403908633C
:100E00000846406A0002000A48620846806A000AF2
:100E100000028862AA484069FF2109028843A84964
:100E2000486108464068FF2109048843A449486096
:100E3000A3484038806AFF2109048843A04940390B
:100E400088620846806A0002000A8862704700B51E
:100E50009C48806B0121C90408439A4988639A48D9
:100E6000006899490860994800699849086198485C
:100E7000C0699749C861084680698861954840689B
:100E80009449486092484069914948619048403887
:100E9000C0698F494039C8610846006A08628B48BA
:100EA00040698A4948618B4880688A4988608848D7
:100EB0004038806A8649403988620846C06AC862FC
:100EC00085487F49403908608448086184497C48E6
:100ED0004038416103208004794940398861814963
:100EE00077484038C16176488068000A0002401C9B
:100EF0007349886008464069000A0002801C486106
:100F00006F484038006B0002000A090540186C4920
:100F1000403908630846006BFF210904884301211A
:100F2000C9044018664940390863084600688021B2
:100F30000843634940390860FFF752FF00BD70B5B0
:100F40000546049C28090001002810D10809000169
:100F500000280CD110090001002808D1180900014F
:100F6000002804D18E262046B043002801D000205E
:100F700070BD53484068FF263602B0435A4E765D36
:100F8000360230434E4E70604D484038006BFF26AD
:100F90003602B043554E765D36023043484E403EF1
:100FA00030633046406A0002000A4F4E765C3606D7
:100FB0003043434E403E70623046806A000A000271
:100FC0004A4E765C30433E4E403EB0623C484069FB
:100FD000FF263602B043444EB65C36023043384EEC
:100FE000706130464068FF263604B0433F4EB65C21
:100FF00036043043324E706031484038806AFF26F4
:101000003604B043384EF65C360430432C4E403E36
:10101000B0623046806A0002000A344EF65C360642
:101020003043274E403EB06202202040022802D1C9
:1010300000BF012000E00020002808D020484038F0
:10104000006BFF26013630431D4E403E30630420C6
:101050002040042802D100BF012000E00020002829
:1010600007D017484038806A01263043144E403E6E
:10107000B06208202040082802D100BF012000E013
:101080000020002806D00E48406801263604304370
:101090000B4E706080202040802802D100BF0120CC
:1010A00000E00020002808D005484038806A01266A
:1010B00036063043024E403EB062012058E7000041
:1010C000403005400080044000C0044000D004408F
:1010D00040A0044040B004406320828F800D0E0089
:1010E00060013000000110000CE0FF1F1CE0FF1F3A
:1010F0000146412903DB5A2901DC012200E00022DC
:10110000012A08D0612903DB7A2901DC012200E0F1
:101110000022012A01D1012200E00022104670477E
:101120000146412903DB5A2901DC012200E00022AB
:10113000012A08D0612903DB7A2901DC012200E0C1
:101140000022012A01D1012200E00022012A08D058
:10115000302903DB392901DC012200E00022012AC9
:1011600001D1012200E000221046704701466129AA
:1011700003DB7A2901DC012200E0002210467047DF
:101180000146412903DB5A2901DC012200E000224B
:10119000104670470146302903DB392901DC012262
:1011A00000E00022104670470146302903DB372952
:1011B00001DC012200E00022104670470146302980
:1011C00001DB392907DD412901DB462903DD6129DE
:1011D00003DB662901DC012200E000221046704793
:1011E0000146202901D0092901D1012200E0002275
:1011F000104670470146202909D00D2907D00A2939
:1012000005D00C2903D0092901D00B2901D10122D5
:1012100000E00022104670470146202903DB7E29AA
:1012200001DC012200E0002210467047014621291E
:1012300003DB7E2901DC012200E00022104670471A
:101240000146202903DB7E2901DC012200E0002287
:10125000012A37D1202909D00D2907D00A2905D024
:101260000C2903D0092901D00B2901D1012200E06A
:101270000022002A26D1412903DB5A2901DC012260
:1012800000E00022012A08D0612903DB7A2901DC71
:10129000012200E00022012A01D1012200E0002207
:1012A000012A08D0302903DB392901DC012200E0C2
:1012B0000022012A01D1012200E00022002A01D1EE
:1012C000012200E000221046704701464AB2002A7F
:1012D00001DB1F2901DD7F2901D1012200E000226D
:1012E000104670470146412903DB5A2901DC0122DF
:1012F00000E00022012A02D10A46203200E00A461C
:10130000D0B270470146612903DB7A2901DC012252
:1013100000E00022012A02D10A46203A00E00A46F3
:10132000D0B27047F0B504460B462046FFF7EAFFFF
:1013300005461846FFF7E6FF0646B54201D10120F3
:1013400000E0002007463846F0BD000070B50446B6
:10135000002500BF00BFFFF747F8054600BF07F0B4
:1013600059F800BF1B48046000BF07F033F800BF06
:101370002846FFF73DF800BF00BF70BD10B5012043
:10138000FFF7E4FF10BD0146134A4A43134BD2183E
:1013900050004008704770B5002600BF00BFFFF73F
:1013A00023F8064600BF07F035F800BF0948056876
:1013B0002846FFF7E8FF04460648046000BF07F030
:1013C00009F800BF3046FFF713F800BF00BF204602
:1013D00070BD00002CE0FF1F6D4EC641393000008B
:1013E00030B5039C0A60651EAD184D608A60FE4DE5
:1013F0002D68CD600B61FC4D296030BDFEB5054602
:101400000E4617461C460020019000BF00BFFEF7A5
:10141000EBFF019000BF06F0FDFF00BF00943A46CD
:1014200031462846089BFFF7DBFF00BF06F0D2FFDE
:1014300000BF0198FEF7DCFF00BF00BFEB49099831
:101440000180FEBD3EB50020E7490860E84C02A8D7
:101450000121CB02224600910190E649E6A0FFF768
:10146000CDFF68460089E149884203D000BF07F0FC
:1014700045F800BF3EBDF7B50B460026002404E04A
:10148000360237461F433E46641C042CF8D30298AC
:1014900000998D07AD0F0099002D09D02C4603E06F
:1014A0000B70491C401E641C002801D0042CF7D38B
:1014B0000A4601E040C2001F0428FBD2114602E0A8
:1014C0000B70491C401E0028FAD1FEBD30B5054600
:1014D0000C46224600212846FFF7CDFF30BDF7B568
:1014E00083B0059A039804990F1A0297029F042F5C
:1014F00026D38507AD0F8F07BF0F0197019FBD4210
:1015000001D1012700E000270097009F012F17D18C
:10151000002D0BD02E4605E00F780770491C401CAB
:10152000521E761C002A01D0042EF5D303460C4629
:1015300002E080CC80C3121F042AFAD2184621464A
:1015400004E00F780770491C401C521E002AF8D195
:1015500006B0F0BDF7B586B0079E069DAE4205D930
:1015600006A807C8FFF7BBFF09B0F0BD089C089CA0
:1015700006980019451E089C07980019461EA81BCE
:1015800005900598042837D3AF07BF0FB007800F29
:1015900001900198874201D1012000E000200090D5
:1015A0000098012828D1032F10D078B2029008E0CB
:1015B00030782870761E6D1E641E0298401E40B260
:1015C0000290002C02D002980028F1DAE81E049064
:1015D000F01E03900AE003980168049801600398E4
:1015E000001F03900498001F0490241F042CF2D2C3
:1015F0000498C51C0398C61C04E030782870761E39
:101600006D1E641E002CF8D100BFADE7F7B585B0A4
:101610001546002D02D1012008B0F0BD0598002824
:1016200000D1F9E70698002800D1F5E70124294602
:1016300005984219069843199007800F02909F075A
:10164000BF0F0197019F0298B84201D1012000E02D
:1016500000200090009801282DD10298002814D075
:10166000029803900AE0521E5B1E10781F78B84261
:1016700000D00024491E0398401E0390012C04D181
:10168000002902D003980028EDD1012C13D1049237
:101690001E460AE00498001F0490361F0498006854
:1016A0003768B84200D00024091F012C01D1042959
:1016B000F0D2049A334607E0521E5B1E10781F7862
:1016C000B84200D00024491E012C01D10029F3D1D9
:1016D0002046A1E7FFB582B004460498984201D99C
:1016E000049800E018460090A6680098401E8643C3
:1016F000A7680098401E0740002F01D1002000E09D
:1017000000983118039808185E1EB043039E8E1986
:101710005F1E3E40002E00D100E01E468219A668E2
:101720006068801B451CA068101A019001988542D2
:101730000DD20B98002803D00198461B0B98066029
:101740002A4EC9360C980680002006B0F0BDA26073
:10175000264E0C9806800846F7E7F0B585B00C4693
:1017600015461E460C9F0020029000BF00BFFEF7EA
:101770003BFE029000BF06F04DFE00BF0B980197A4
:1017800000903246294620460A9BFFF7A3FF0390AC
:101790003888164988420BD000BF06F01BFE00BFF8
:1017A0000298FEF725FE00BF00BF002005B0F0BD87
:1017B00000BF06F00FFE00BF0298FEF719FE00BF43
:1017C00000BF0398F2E7F0B585B005460E46174610
:1017D0001C46012033462A46064901970294009090
:1017E0000020FFF7BAFF0BE030E0FF1F10270000DA
:1017F000DCEDFF1FDCF5FF1F486561700000000095
:1018000003902088FE49884202D1FD480A3020809A
:10181000039805B0F0BDFFB585B004460E461546E9
:1018200000200190002C00D1F64C00BF00BFFEF755
:10183000DBFD019000BF06F0EDFD00BF711EA0684A
:101840008843721EA1681140002900D100E0314692
:101850004018029000BF06F0BDFD00BF0198FEF7E2
:10186000C7FD00BF00BF21686068401A471C21689F
:101870000298401A03900398381A0490002D06D05D
:101880006F60039828602068A8600298E860DC49CF
:10189000C93908980180049809B0F0BD70B50546B3
:1018A0000C46234600222946D648FFF7B4FF0646D9
:1018B0002088D349C939884201D0002070BD304604
:1018C000FCE770B504460D46002600BF00BFFEF7DA
:1018D0008BFD064600BF06F09DFD00BF2068A0609E
:1018E00000BF06F077FD00BF3046FEF781FD00BF68
:1018F00000BFC348C938288070BDFFB583B0074614
:101900000C461D46002C00D1BE4C002001210423B2
:1019100002950091019021463846059AFFF71DFF78
:101920000646304607B0F0BDFFB583B006460C460C
:101930000C9F002C00D1B34C01210D980197009110
:10194000029021463046069B059AFFF706FF0546A2
:10195000284607B0F0BDFFB583B00C460D9F0C9E26
:10196000002C00D1A74C20696946C1C12146069BC5
:10197000059A0398FFF7F1FE0546284607B0F0BD2B
:10198000F0B503460E461446701EC7189E480168FF
:1019900018E00A684D68934206D1AF4204D14F2047
:1019A000C00120800846F0BD934201D3AB4203D969
:1019B000934206D8974204D391485A38208008466B
:1019C000F1E7C9680029E4D18D48C938208000209A
:1019D000E9E7002202604260C26082600261426107
:1019E000874AC93A0A807047FFB58BB005461E4644
:1019F000179C0020049021462846FFF7EAFF208824
:101A00007F49C939884201D00FB0F0BD0C98002839
:101A100002D17C480A904FE000BF00BFFEF7E4FC13
:101A2000049000BF06F0F6FC00BF22460D990C980A
:101A3000FFF7A6FF0A90208874494018002804D0B8
:101A40006F2825D0702822D12CE01698012304227B
:101A50001421019400906B48FFF73CFE0A90208807
:101A60006749C939884209D000BF06F0B3FC00BFFE
:101A70000498FEF7BDFC00BF00BFC5E70D98012329
:101A8000009000200C9A0A99FFF7AAFC0AE000BF18
:101A900000BF06F09FFC00BF0498FEF7A9FC00BF42
:101AA00000BFB1E700BF00BF06F094FC00BF049880
:101AB000FEF79EFC00BF00BF1598421E149991438B
:101AC000401E149A1040002800D100E01598081814
:101AD000089008987043099001211698029400918B
:101AE00001904BA0159B099A0A99FFF736FE07460D
:101AF00020884349C939884200D085E701211698DA
:101B0000B20004230294009101903E4945A0FFF7E2
:101B100024FE286120883A49C939884200D073E7F9
:101B20000597002006900BE005982A690699890020
:101B3000505008990598401805900698401C06904A
:101B40000698B042F0D30998401EC01907902F6044
:101B500007986860AE600898E8606E6100BF53E760
:101B6000F8B5044615460027002600BF00BFFEF763
:101B70003BFC074600BF06F04DFC00BF6069002833
:101B80000BD06069401E6061616989002069465818
:101B90000020626992002169885000BF06F01AFC9B
:101BA00000BF3846FEF724FC00BF00BF002E03D163
:101BB0001348401D288002E01148C938288030466B
:101BC000F8BDF8B504460E461546002700BF00BF15
:101BD000FEF70AFC074600BF06F01CFC00BFA16828
:101BE0006069884230D300BF06F0F4FB00BF38467E
:101BF000FEF7FEFB00BF00BF0148001D2880F8BDB6
:101C0000D9270000DCF5FF1F30E0FF1FF0D8FFFFF1
:101C1000556E6E616D6564207374617469632070C4
:101C20006F6F6C00556E6E616D65642073746174C6
:101C3000696320706F6F6C206672656520626C6BE3
:101C40002074626C000000006169890020694650C0
:101C50006069401C606100BF06F0BCFB00BF3846F5
:101C6000FEF7C6FB00BF00BFBF48288000BFF8BD1D
:101C7000F8B504460D46002700BF00BFFEF7B4FBD1
:101C8000074600BF06F0C6FB00BF666900BF06F04E
:101C9000A1FB00BF3846FEF7ABFB00BF00BFB24858
:101CA00028803046F8BDFFB585B00C461F460F9919
:101CB0000E98884201D90E9800E00F980646042F2E
:101CC0000BD2701E0421814304221040002800D151
:101CD00000E030460818049009E0701E3946814340
:101CE0003840002800D100E03046081804901098D1
:101CF000002816D000210122129800920191029032
:101D00001099049848430246334607990598FFF70F
:101D100024FD0546129800889349884201D009B0F5
:101D2000F0BD079820606760A6600F98E06011988A
:101D300060610020A061109800280FD0256100206C
:101D400005E004996918296004996D18401C1099E0
:101D5000491E8142F5D80021296001E00020206160
:101D600081491298018000BFD9E7FFB585B01446BC
:101D70000FADE0CD002C00D17C4C012001A9E1C1C8
:101D80000E9800902246089B06990598FFF78BFF56
:101D900009B0F0BDFFB585B014460FADE0CD002C05
:101DA00000D1724C206901A9E1C10E980090224631
:101DB000089B06990598FFF776FF09B0F0BDF0B5CE
:101DC00085B004460D46002003906069002827D0A6
:101DD00000BF00BFFEF708FB039000BF06F01AFB30
:101DE00000BF6169A06988420ED300BF06F0F2FA15
:101DF00000BF0398FEF7FCFA00BF00BF5A48CE3080
:101E00002880002005B0F0BDA069401CA06100BF83
:101E100006F0E0FA00BF0398FEF7EAFA00BF00BF41
:101E200000BF00BFFEF7E0FA039000BF06F0F2FA31
:101E300000BF206900280FD026693068206100BFEC
:101E400006F0C8FA00BF0398FEF7D2FA00BF00BF41
:101E5000454828803046D5E700BF06F0BBFA00BFF2
:101E60000398FEF7C5FA00BF00BF00270021E06815
:101E70006A4623C2384621460EC9FFF76EFC064665
:101E800028883949884201D00020BBE73046B9E7AD
:101E9000F8B504460D46164600276069002824D090
:101EA00000BF00BFFEF7A0FA074600BF06F0B2FA77
:101EB00000BFA06900280CD100BF06F08BFA00BF5C
:101EC0003846FEF795FA00BF00BF2748CD30308076
:101ED000F8BDA069401EA06100BF06F07BFA00BFFC
:101EE0003846FEF785FA00BF00BF00BF00BFFEF70F
:101EF0007BFA074600BF06F08DFA00BF2069286014
:101F0000256100BF06F066FA00BF3846FEF770FA9A
:101F100000BF00BF1448308000BFD9E7F8B50446C1
:101F20000D4600276069002817D000BF00BFFEF7EC
:101F30005BFA074600BF06F06DFA00BFA169606951
:101F4000461A00BF06F046FA00BF3846FEF750FAC0
:101F500000BF00BF0448288003E000260248CF30BD
:101F600028803046F8BD000010270000DCF5FF1F78
:101F700010B502460B461146002001E0491C401CEA
:101F8000002904D00C78002C01D09842F6D310BD63
:101F900030B504460021C9432046FFF7E9FF054656
:101FA000284630BD70B504460D461646002C00D1BB
:101FB00070BD002D01D10020FAE721462A460023FA
:101FC00004E010780870491C521C5B1C002906D0E4
:101FD000002A04D01078002801D0B342F1D30029A0
:101FE00001D0002A01D10020E2E7B34201D2002053
:101FF00008702046DCE770B504460D460022D24347
:1020000029462046FFF7CEFF0646304670BD70B524
:1020100003460C461546002B00D170BD002C01D1A3
:102020000020FAE7002D01D11846F6E7194600E036
:10203000491C002902D008780028F9D1002901D1D3
:102040000020EAE72246002604E010780870491CC8
:10205000521C761C002906D0002A04D010780028D3
:1020600001D0AE42F1D3002901D0002A01D10020D5
:10207000D3E7002008701846CFE770B504460D4638
:102080000022D24329462046FFF7C1FF06463046CC
:1020900070BDF7B582B005460B460498002801D103
:1020A00005B0F0BD002D07D1002B01D10020F7E7CE
:1020B000187842421046F3E7002B02D12A781046E6
:1020C000EEE729461C460E4623460194761C019BEA
:1020D000581C01900020009008E0491C641C761CEC
:1020E0000198401C01900098401C009008782778C7
:1020F000B8420BD10878002808D0002E06D00198ED
:10210000002803D0049F0098B842E6D3049F0098AB
:10211000B84201D10020C3E708782778B84203D03D
:1021200008782778C21B10E00878002801D1002227
:102130000BE0002E08D10198002801D1002204E014
:1021400001980078424200E032781046A8E770B566
:1021500004460D460022D24329462046FFF799FF48
:102160000646304670BDF7B586B00E460898002882
:1021700001D109B0F0BD0698002809D1002E00D188
:10218000F7E73078FFF7AEF807467C422046F0E7E5
:10219000002E07D106990878FFF7A4F805462C46CB
:1021A0002046E6E706980590049605980390049E5D
:1021B00002960398401C0390029E701C02900599A1
:1021C0000878FFF78FF80546049E3078FFF78AF805
:1021D00007460020019018E00598401C05900498DF
:1021E000401C04900398401C03900298401C0290ED
:1021F0000198401C019005990878FFF773F805468F
:1022000004990878FFF76EF80746BD420DD105988E
:102210000078002809D00398002806D002980028EA
:1022200003D0089901988842D6D30899019888422A
:1022300001D100209DE7BD4201D0EC1B18E0002D2C
:1022400001D1002414E0039800280BD10298002843
:1022500001D100240CE002990878FFF743F8074603
:102260007C4205E003990878FFF73CF805462C46C8
:1022700020467EE770B504460D460022D24329462B
:102280002046FFF770FF0646304670BD30B5044665
:102290000B461546002C00D130BD002B01D100208B
:1022A000FAE72146002201E0491C521C002907D010
:1022B0000878002804D00878A84201D09A42F3D3C5
:1022C000002901D10020E7E79A4201D30020E3E78B
:1022D0000878A84201D00020DEE70846DCE770B5A8
:1022E00005460C4622460021C9432846FFF7CEFF8B
:1022F0000646304670BDFCB505460E461746002D15
:1023000000D1FCBD002E01D10020FAE72C46701E42
:10231000019020460199FFF72BFE009000982418A9
:10232000002C01D10020ECE700E0641EAC4202D09A
:102330002078B842F9D12078B84201D00020E0E7F7
:102340002046DEE770B505460C4622460021C9430B
:102350002846FFF7D0FF0646304670BD70B50446EC
:102360000D46002C00D170BD002B01D10020FAE7F2
:1023700021461E4605E00878A84200D10A70491C93
:10238000761E002904D00878002801D0002EF2D152
:102390002046E8E7F0B504460D4616460023DB4329
:1023A000324629462046FFF7D9FF07463846F0BD9A
:1023B000F0B588B006460F461546002E01D108B08C
:1023C000F0BD002F01D10020F9E7002D01D1002040
:1023D000F5E7681C002800D001E00020C04306900B
:1023E00029463046FFF7C4FD079038460699FFF7A7
:1023F000BFFD0446002C01D13046E0E70798844237
:1024000001D90020DBE707983018019001980028D7
:1024100000D1D4E7381901900198002800D1CEE707
:102420000798001B059000200490039000BF0498BB
:1024300030180090224639460098FFF72AFE029095
:102440000298002801D1012000E0002003900498A8
:10245000401C04900398002803D1059904988842F1
:10246000E5D90298002801D00020A8E70098A6E747
:1024700070B504460D460022D24329462046FFF798
:1024800097FF0646304670BDFFB591B00F46164621
:102490001A9D1D98002801D115B0F0BD00200390B1
:1024A0000490012F01DA01200390022E01D3242E83
:1024B00001D901200390002D32D02846FEF7ACFE52
:1024C00002900298012802D00120039028E0302DCC
:1024D00026D028463038C0B207901B98012804D077
:1024E00028464138C0B2069003E028466138C0B2A1
:1024F00006900A2E02D80798B04209DB0A2E09D9A5
:1025000007980A2804D330460A380699884201D928
:10251000012000E0002005900598012800D10390DB
:102520001D9C002004900398002843D111980F901F
:1025300011980E9001200D9008E00D98401CC0B23B
:102540000D9031460E9806F014FD0E900E98B04294
:10255000F3D21498012800D100E000200A900D99D0
:102560000A980818B84223DC002001900D98B84260
:1025700001DA0D9800E038460C90002D07D00B973B
:102580000C98391A0A98081AC0B2099006E00A99FC
:102590000C984018C0B20B900020099009980028B0
:1025A00008DD302D01D1012000E00020049001E081
:1025B000012003900398002800D00B970B98241853
:1025C0001C98002801D000202070641E002010906C
:1025D0004AE00398002841D10F98002802D11098B2
:1025E00000281FD131460F9806F0C3FCC8B20890EE
:1025F00008980A2804D2089830302070641E0BE036
:102600001B98012804D0089837302070641E03E01E
:10261000089857302070641E31460F9806F0A9FCC8
:102620000F901EE01498012813D10498002802D1BD
:102630000198002807D0049800280AD00B98401E63
:102640001099884205D12D202070641E0120019030
:1026500007E0002D05D02570641E02E03F202070A9
:10266000641E1098401C10900B9910988842B0D3AB
:102670000398002801D000200EE71D980CE7FFB555
:1026800085B01C460EADE0CD002303970296019560
:10269000009405A807C8FFF7F7FE0490049809B056
:1026A000F0BDFFB585B004461F46002C02DA654236
:1026B000012601E0254600260E9A0F991098334610
:1026C00000970192029103902846079A0699FFF716
:1026D000DBFE0490049809B0F0BDFFB58DB006464E
:1026E00015460E98002802D10BA80E9000BF0E9838
:1026F00006601698002802D108A8169000BF002195
:1027000016980170002E02D1002011B0F0BD012DED
:1027100001D0242D01D90020F7E734462078FEF7B8
:1027200069FD039004E0641C2078FEF763FD0390CC
:1027300003980128F7D020782B2802D02D280BD120
:1027400003E0641C0020029009E01098012800D1E9
:10275000641C0120029002E00020029000BF00BF34
:102760000C94002D04D0082D1CD0102D36D11EE065
:102770002078302814D1641C2078582802D078287A
:102780000BD100BF102567783846FEF717FD05907E
:102790000598012800D1641C01E0082500BF00E075
:1027A0000A251CE02078302800D1641C17E020782E
:1027B000302812D1641C2078582802D078280AD1F9
:1027C00000BF67783846FEF7F9FC059005980128A8
:1027D00000D1641C00E000BF00BF00E000BF00BFEC
:1027E000002009900190009046E027783846FEF7D7
:1027F00097FC0690069801283CD13846FEF7CAFCA3
:1028000007900798012804D138463038C0B20A90A2
:102810000FE03846FEF7AAFC04900498012804D182
:1028200038465738C0B20A9003E038463738C0B24D
:102830000A900A98A8421ADA0198002815D1A8002F
:1028400030490958099881420DD309986843099085
:102850000A990998401809900A990998884204D25F
:102860000120019001E001200190641C04E001209E
:10287000009001E00120009000980028B5D0019858
:10288000012801D1801E09900C98844202D00E9834
:10289000046001E00E980660169902980870099885
:1028A00033E7F8B504460D46164600200346324687
:1028B000294600902046FFF710FF07463846F8BD2E
:1028C000FEB505460E46174601A801233A46314695
:1028D00000902846FFF701FF04466846007900286B
:1028E00006D10948844200D900E02046029006E063
:1028F0000548844201D9C00700E060420290029876
:10290000FEBD00004C910000FFFFFF7F00241DE092
:1029100000BF00BFFDF768FD044600BF05F07AFD6B
:1029200000BFF8480068401CF6490860F648006897
:10293000401CF549086000BF05F04CFD00BF204673
:10294000FDF756FD00BF00BF05F014FCE0E710B531
:102950008AB004460020EB4908600B200021059155
:102960000894069107900846E8490968E84A126801
:10297000E84B1B6801930292039104903F200023CF
:10298000E54AE6A10090EA4803F0DBFB0AB010BD7F
:10299000002109E00C224A43E64BD01800220281B4
:1029A000026042604A1CD1B24029F3D3704770B52F
:1029B000044605F0E8FB0020DF490870DF49087095
:1029C000DF490870DF490860DF490860DF490870A7
:1029D000DF490870DF490870DF490860DF49086097
:1029E000DF490860DF48006800280CD0DE48056831
:1029F000002D08D0DB48066803E0761E0020286022
:102A00002D1D002EF9D10020D8490860D849086052
:102A1000D8490860D8490860D8490860D849086092
:102A2000D8490860D849087002F0FCF8FFF7B0FFF9
:102A3000204601F050FB2088002800D070BD2046C1
:102A400001F01DFC2088002800D0F7E7204601F0A7
:102A500027FC2088002800D0F0E7204602F0C7F8C5
:102A60002088002800D0E9E7204602F0FAFB208801
:102A7000002800D0E2E7204602F00FFF208800285F
:102A800000D0DBE7204604F0C6FB2088002800D0F9
:102A9000D4E72046FFF75BFF2088002800D0CDE771
:102AA000204604F0CFFC2088002800D0C6E720464E
:102AB00003F0C5F92088002800D0BFE7204605F0C4
:102AC00068FA2088002800D0B8E700F023FDFDF761
:102AD00085FC00BFB2E799480078012800D0704714
:102AE00095480078FA2800DBF9E793480078401C05
:102AF0009149087000BFF2E710B500248F480078B4
:102B0000012800D010BD00BFFDF76EFC044600BFD9
:102B100089480078002805D100BF2046FDF768FCF1
:102B200000BFEFE784480078401E834908700846DC
:102B30000078002805DD00BF2046FDF759FC00BFE6
:102B4000E0E77F480078002805DD00BF2046FDF75C
:102B50004FFC00BFD6E702F06FF87D4908700846C9
:102B600000780C21484373490858774908600846A3
:102B7000006874490968884205D100BF2046FDF706
:102B800037FC00BFBEE77048006880304068401CDA
:102B90006D490968803148607C480068401C7B4969
:102BA000086005F0ACFA00BF2046FDF721FC00BF2D
:102BB00000BFA7E710B500245F480078002800DDBB
:102BC00010BD5F480078002800DDF9E700BFFDF781
:102BD0000BFC044600BF02F02FF85D490870084660
:102BE00000780C2148435349085857490860084663
:102BF000006854490968884205D100BF2046FDF7A6
:102C0000F7FB00BFDCE75048006880304068401C9C
:102C10004D490968803148605C480068401C5B4948
:102C2000086005F068FA00BF2046FDF7E1FB00BF31
:102C300000BFC5E710B542480078012803D1FDF771
:102C4000AEFB4549086010BD70B5044600253A4802
:102C50000078002802DD4E48208070BD374800789B
:102C6000012802D04B482080F7E735480078FA2841
:102C700002DB49482080F0E700BF00BFFDF7B4FB4E
:102C8000054600BF05F0C6FB00BF2D480078401C7C
:102C90002B490870FFF7CEFF00BF05F09BFB00BF7C
:102CA0002846FDF7A5FB00BF00BF0020208000BF25
:102CB000D3E710B522480078002810D1FDF76FFB4C
:102CC00025490968441A25480068A04201D22348D2
:102CD000046023480068A04201D22148046010BD6E
:102CE00070B50446002514480078002803DD284804
:102CF000C01C208070BD1148007801284ED02548A6
:102D00002080F7E758E0FF1FA8E0FF1FE8910000D0
:102D1000E4910000E09100000D29000075432F4F61
:102D2000532D4949492049646C65205461736B00F7
:102D300030060020F80600205CE0FF1F64E0FF1F63
:102D400098E0FF1F00E1FF1F04E1FF1F7EE0FF1F6F
:102D50007FE0FF1F80E0FF1F8CE0FF1F90E0FF1F60
:102D600094E0FF1F109200000C9200003CE0FF1F57
:102D700040E0FF1F44E0FF1F48E0FF1F4CE0FF1F43
:102D800050E0FF1F54E0FF1FC6E0FF1FBCE0FF1F25
:102D9000626D0000895E000009520000FE48007864
:102DA000002802D1FD482080A4E700BF00BFFDF746
:102DB0001BFB054600BF05F02DFB00BFF648007861
:102DC000401EF54908700846007800280CDD00BF59
:102DD00005F000FB00BF2846FDF70AFB00BF00BF5F
:102DE000EE48401E208085E7FFF763FF00BF05F037
:102DF000F1FA00BF2846FDF7FBFA00BF00BFFFF75E
:102E0000D9FE0020208000BF74E710B50446E448D6
:102E1000007800281BD101F00FFFE2490870084636
:102E20000078E1490870DF4800780C214843DF4909
:102E30000858DF49086008460068DE49086001203C
:102E4000D749087005F048F9DB48208001E0DB48ED
:102E5000208010BD014600200880D948704770B519
:102E6000002809D0B82546686E5004460834226808
:102E700093681D6AC56113E034256D5C022D02D094
:102E8000072D08D103E0CFA6B8256E5007E0CFA6E6
:102E9000B8256E5003E0D0A6B8256E5000BF00BF25
:102EA00070BDF0B58E683727BD5D0789002F07D14B
:102EB0000127078100274F600F600160416024E017
:102EC00007897F1C0781026806E0946837273F5D09
:102ED000AF4200DD02E05268002AF6D100BF002AAE
:102EE00006D100274F6043680B60596041600CE0D9
:102EF0001768002F04D111600F604A60016004E080
:102F000013680B604A6059601160F0BD10B5C2874C
:102F1000016300230AE000244C600C600C614C61EA
:102F20000C83CC61886020315C1CA3B29342F2DB3D
:102F300010BDF8B505463720405D0C2148439B493C
:102F400044182F69EE68002F11D1002E08D10020FF
:102F50002081206060603721485D01F091FE0FE024
:102F60002089401E208100203061266008E02089F1
:102F7000401E2081FE60002E01D1676000E03761B5
:102F800000202861E860F8BD70B504460D46002DAC
:102F900008D02A462146914804F09AFA03213620A7
:102FA000015502E00221362001552046FFF7C1FFFE
:102FB00070BDFFB581B005460C4616467D480068D9
:102FC0002030067500217B48006820304175794823
:102FD00004990068FFF7D8FF002C0DD0274608376A
:102FE000EC600122294673480068FFF78FFF2946ED
:102FF0003846FFF756FF06E000206E490968C8878B
:103000006C49096808636B4801682046FFF727FF91
:1030100005B0F0BD10B50489012C03D10024046073
:10302000446011E00C68002C03D14B681C60036005
:103030000AE04C68002C03D10A685460426003E047
:103040000A684B6853601A600489641E0481002476
:103050004C600C6010BDF8B50446256BE68F0AE0A5
:10306000EF6838460830009029460098FFF7D2FFF5
:103070002035701E86B2002EF2DC0020E08720632F
:10308000F8BD30B50346086BCC8F08E0C5689D429B
:1030900002D10361C26104E02030651EACB2002C95
:1030A000F4DC00BF30BD10B537231B5C0C24634338
:1030B0003E4C19190B89002B07D101230B810023EA
:1030C000C36003610860486009E00B895B1C0B81E9
:1030D0000B68C360002303610A681061086010BDBB
:1030E00010B537231B5C0C246343304C19190B8932
:1030F000002B07D101230B810023C360036108600B
:10310000486008E00B895B1C0B810023C3604A68A0
:103110000261D060486010BD10B504463721085DDB
:1031200001F09CFD3720005D1F490978884203D1DA
:103130002046FFF7D5FF02E02046FFF7B4FF10BDA1
:1031400070B505460C4616463620005D030005F0B6
:10315000EFFF080506090A070857587D00BF00BFA2
:1031600000BF74E000BF3420005D032804D1324664
:1031700021462846FFF785FF0020206500215420C6
:1031800001532664002D02D02046FFF764FF36204D
:10319000005D032827D123E098E0FF1F646D000045
:1031A00064E0FF1F7FE0FF1F7EE0FF1FF8060020A6
:1031B00004E1FF1F00E1FF1F993A00008A5E000052
:1031C000C27600005461736B205100005461736B30
:1031D0002053656D0000000020000000D8E0FF1FB4
:1031E000204604F014FA2046FFF796FF002136200F
:1031F000015501213520015500213420015526E0DB
:1032000000BF3420005D032804D132462146284601
:10321000FFF737FF0020206500215420015326646A
:10322000002D02D02046FFF716FF3620005D07284C
:1032300002D1204604F0EBF904213620015501218A
:103240003520015500213420015500E000BF00BFAA
:1032500070BD70B5AEA6B8256E500446083422681D
:10326000002A03D093681D6AC56101E0A8A5C56165
:1032700070BDF3B581B00446372102980855256B1F
:10328000E78F12E0E868009000980646083630891B
:10329000012807D929463046FFF7BCFE29463046AB
:1032A000FFF7FFFD2035781E87B2002FEAD1FEBD63
:1032B0000021016041600181704703895B1C03812B
:1032C00003684B6000230B600268002A00D0116085
:1032D00001600389012B00D14160704730B503467E
:1032E000086BCC8F08E0C5689D4202D10361C261C2
:1032F00004E02030651EACB2002CF4DC00BF30BD11
:1033000070B506460C4615463620005D030005F0F4
:103310000FFF080506090A070830315400BF00BF37
:1033200000BF4BE000BF3420005D032804D12A46D3
:1033300021463046FFF7D2FF0020206500215420AF
:10334000015325642046FFF786FE3620005D0328E2
:1033500002D1204604F05BF92046FFF7DDFE002194
:103360003620015502213520015500213420015518
:1033700024E000BF3420005D032804D12A46214602
:103380003046FFF7ABFF0020206500215420015399
:1033900025642046FFF75FFE3620005D072802D136
:1033A000204604F034F9042136200155022135204D
:1033B000015500213420015500E000BF00BF70BD61
:1033C000F0B5059C0D6BCE8F0AE0EF68874204D103
:1033D00028616A612B83EC6104E02035771EBEB260
:1033E000002EF2DC00BFF0BDFFB581B006460C46F2
:1033F00017460A9D3620005D030005F099FE08057A
:1034000006090A070836376100BF00BF00BF58E051
:1034100000BF3420005D032807D100953A462146BD
:103420003046049BFFF7CCFF04E027655421049845
:1034300008532564002E06D02046FFF70CFE2146D7
:103440003046FFF706FF3620005D032802D12046F4
:1034500004F0DDF82046FFF75FFE0021362001551D
:1034600035200155342001552BE000BF3420005D8C
:10347000032807D100953A4621463046049BFFF7C2
:103480009FFF04E027655421049808532564002E0B
:1034900006D02046FFF7DFFD21463046FFF7D9FE74
:1034A0003620005D072802D1204604F0B0F8042140
:1034B000362001550021352001553420015500E00A
:1034C00000BF00BF05B0F0BD10B501460C89002C4F
:1034D00004D0012C03D0022C0CD101E000BF14E079
:1034E00008684A6802610024C4601461D0600A6000
:1034F00048600AE008684A68C36800241C61C46028
:103500000261D0600B60486000BF00BF10BD0000CA
:1035100020000000244A2549254A264A2649274AF0
:103520002748284A284A294A294A2A482A482B4A09
:103530002B482C4A2C482D4A2D482E482E482F48DF
:103540002F4A304A304A3148314A324A32483348A9
:1035500033483448344835483548364A364A374A7D
:10356000374A384838483948394A3A4A3A4A3B484B
:103570003B483C483C493D483D4A3E4A3E4A3F4A1A
:103580003F4A404A404A4148414A424A42484348E9
:10359000434A444A4448454A454A4648464800BF8B
:1035A00000BF00BF7047000074920000D893000075
:1035B0007592000076920000789200007C920000E4
:1035C000809200007D920000A8920000A992000065
:1035D000AA920000AC920000AE920000B2920000ED
:1035E000B4920000D4920000D6920000D89200005D
:1035F000DA920000DC920000DE920000E09200000F
:103600000C9300000D9300000E9300001093000037
:10361000129300001393000014930000169300000F
:10362000189300001A9300001C9300001E930000E2
:10363000209300005093000051930000529300002B
:1036400053930000549300005693000058930000D9
:103650008093000081930000829300008393000018
:103660008493000086930000889300008C930000F0
:103670008D9300008E9300008F93000090930000C4
:1036800091930000929300009393000094930000A4
:103690009693000097930000989300009A9300007F
:1036A0009C9300009D930000A0930000D093000025
:1036B000D1930000D2930000D4930000FEA1C16119
:1036C00000214161FD490968002901D1816105E0BE
:1036D000FA4909688161F94909684861F749086050
:1036E0007047F8B504460E4617461D460020009068
:1036F000F3480078002802DDF2482880F8BD00BFBA
:1037000000BFFCF771FE009000BF04F083FE00BF15
:10371000ED48206066602762002060622046083025
:10372000FFF7C6FD2046FFF7C9FFE8480088401CA8
:10373000E649088000BF04F04DFE00BF0098FCF78A
:1037400057FE00BF00BF0020288000BFD6E770B53D
:103750000446DF482060DFA060600020206225462C
:1037600008352846FFF7A4FD70BD42698169002A2B
:1037700008D1D24B1960002901D000234B610023EE
:1037800083610AE0002903D100239361436104E0CF
:1037900091614A610023836143617047F7B584B04A
:1037A000144600200090C6480078002804DDCB486D
:1037B0002080002007B0F0BD00BF00BFFCF714FE62
:1037C000009000BF04F026FE00BF049807460837AB
:1037D0003D892E460598002802D0012850D124E0CA
:1037E000002E16D10498FFF7C0FFB8480088401E8D
:1037F000B64908800498FFF7AAFF00BF04F0EAFD6D
:1038000000BF0098FCF7F4FD00BF00BF002020803F
:103810000AE000BF04F0DEFD00BF0098FCF7E8FD01
:1038200000BF00BFAE48208036E0FCF7B8FD019035
:103830000BE038680390039880680290019A02991F
:103840000498FFF75DFD681E85B2002DF1D1049844
:10385000FFF78BFF9D480088401E9C490880049814
:10386000FFF775FF00BF04F0B5FD00BF0098FCF73F
:10387000BFFD00BF00BFFFF79DF9002020800BE0D7
:1038800000BF04F0A7FD00BF0098FCF7B1FD00BF2A
:1038900000BF9448208000BF00BF30468AE7F8B5DB
:1038A00006460F4614461D468F48006844678E48FA
:1038B00000684030858700208B49096888670122AD
:1038C00039463046069BFFF774FBF8BDFFB58DB057
:1038D0000446169F179D0020029079480078002822
:1038E00004DD82482880002011B0F0BDFF210131A5
:1038F00010980840002802D001200C9001E0002020
:103900000C90002F01D00020386010980007000FA5
:103910000B9000BF00BFFCF767FD029000BF04F0F2
:1039200079FD00BF0B9801287CD002287BD00428A9
:1039300002D0082878D156E0266A0E990E400E98DB
:10394000864219D10C98012802D1206AB043206226
:10395000654800688667002F01D0606A386000BF44
:1039600004F038FD00BF0298FCF742FD00BF00BF25
:10397000002028803046B7E70121C903109808408D
:1039800000280DD000BF04F025FD00BF0298FCF711
:103990002FFD00BF00BF5548801C28800020A3E7F2
:1039A0005348007800280CDD00BF04F013FD00BF71
:1039B0000298FCF71DFD00BF00BF4E482880002084
:1039C00092E70F980090214603A8109B0E9AFFF7EC
:1039D00066FF00BF04F0FEFC00BF0298FCF708FD84
:1039E00000BF00BF31E1266A0E990E40002E1CD0A8
:1039F0000C98012802D1206AB04320623A4800683E
:103A00008667002F01D0606A386000BF04F0E2FCD6
:103A100000BF0298FCF7ECFC00BF00BF002028802C
:103A2000304661E738E0AEE002E10121C9031098B9
:103A3000084000280DD000BF04F0CCFC00BF029865
:103A4000FCF7D6FC00BF00BF2848801C288000205F
:103A50004AE72748007800280CDD00BF04F0BAFCD4
:103A600000BF0298FCF7C4FC00BF00BF21482880BB
:103A7000002039E70F980090214603A8109B0E9A6A
:103A8000FFF70DFF00BF04F0A5FC00BF0298FCF794
:103A9000AFFC00BF00BFD8E0216A0E9E8E430E9897
:103AA00086423AD10C98012802D1206A3043206224
:103AB0000D48006886671FE02000000068E0FF1FD7
:103AC0005CE0FF1FE12E0000464C41476CE0FF1F09
:103AD0004E4F4E453F464C4147000000C932000062
:103AE0005F710000255E000000E1FF1FAE61000075
:103AF00098E0FF1F636D0000002F01D0606A3860FE
:103B000000BF04F067FC00BF0298FCF771FC00BF27
:103B100000BF002028803046E6E60121C903109846
:103B2000084000280CD000BF04F054FC00BF0298ED
:103B3000FCF75EFC00BF00BFF94828800020D3E6F8
:103B4000F848007800280CDD00BF04F043FC00BFFB
:103B50000298FCF74DFC00BF00BFF348288000200E
:103B6000C2E60F980090214603A8109B0E9AFFF71B
:103B700096FE00BF04F02EFC00BF0298FCF738FC54
:103B800000BF00BF61E0216A0E9E8E43002E19D057
:103B90000C98012802D1206A30432062E348006873
:103BA0008667002F01D0606A386000BF04F012FC05
:103BB00000BF0298FCF71CFC00BF00BF002028805B
:103BC000304691E60121C9031098084000280CD026
:103BD00000BF04F0FFFB00BF0298FCF709FC00BF28
:103BE00000BFCF48288000207EE6CE48007800281D
:103BF0000CDD00BF04F0EEFB00BF0298FCF7F8FB01
:103C000000BF00BFC848288000206DE60F980090D4
:103C1000214603A8109B0E9AFFF741FE00BF04F057
:103C2000D9FB00BF0298FCF7E3FB00BF00BF0CE02C
:103C300000BF04F0CFFB00BF0298FCF7D9FB00BF28
:103C400000BFBB48288000204EE600BFFEF7B2FF51
:103C500000BF00BFFCF7C8FB029000BF04F0DAFB16
:103C600000BFB24800682030407D002806D00128FF
:103C70000DD002282ED003283FD11BE0002F03D007
:103C8000AA480068006C38600020288042E0002FBD
:103C900003D0A6480068006C386000BF04F09AFBAF
:103CA00000BF0298FCF7A4FB00BF00BF9C48C01FE8
:103CB00028802FE0002F01D00020386000BF04F0E2
:103CC00089FB00BF0298FCF793FB00BF00BF994837
:103CD00028801FE0002F03D094480068006C3860F3
:103CE00000BF04F077FB00BF0298FCF781FB00BF28
:103CF00000BF8F48633828800CE000BF04F06AFBE7
:103D000000BF0298FCF774FB00BF00BF8648CB30B1
:103D1000288000BF00BF2888002801D00020E3E5EC
:103D200082480068866F0C98012821D10B980128E1
:103D30000BD002280AD0042802D008280AD100E0BB
:103D400000BF206AB043206211E000BF206A304308
:103D500020620CE000BF04F03DFB00BF0298FCF7BE
:103D600047FB00BF00BF724828800020BCE500BFB1
:103D700000BF04F02FFB00BF0298FCF739FB00BF27
:103D800000BF002028803046AEE5F7B584B00E466F
:103D900014460020019068480078002805DD60483E
:103DA000801F2080002007B0F0BD00BF00BFFCF7DF
:103DB0001BFB019000BF04F02DFB00BF04980546DB
:103DC0000835288900280DD100BF04F003FB00BF8F
:103DD0000198FCF70DFB00BF00BF5148401F208039
:103DE0000020E0E70027FCF7DAFA02900EE02868EE
:103DF00080680390029A03990498FFF7A1F9781C50
:103E000087B2FF200130864200D002E028890028D6
:103E1000EDDC00BF00BF04F0DDFA00BF0198FCF745
:103E2000E7FA00BF00BF0120C0033040002801D1E5
:103E3000FEF7C0FE002020803846B4E770B5044687
:103E400000263D480078002804DD3548801E20808B
:103E5000002070BD00BF00BFFCF7C6FA064600BFD9
:103E600004F0D8FA00BF31480068856F00BF04F045
:103E7000B1FA00BF3046FCF7BBFA00BF00BF00201C
:103E800020802846E5E770B504460D461646A5672E
:103E90000021352001553420015526643620005D6F
:103EA000030005F045F9080506090A080718191D59
:103EB00000BF00BF00BF14E000BF3620005D032834
:103EC00002D1204603F0A3FB2046FFF725F900218D
:103ED0003620015505E000BF04213620015500E0E1
:103EE00000BF00BF2046FFF7B6F870BDFFB585B034
:103EF00004460020009000BF00BFFCF775FA009058
:103F000000BF04F087FA00BF0798002816D00128E8
:103F10001AD00121C903401A11D001281AD114E086
:103F2000B061000098E0FF1F636D000000E1FF1F1B
:103F3000255E0000D97200005CE0FF1F00BF206A10
:103F400006990843206214E000BF216A0698814365
:103F500021620EE000BF04F03DFA00BF0098FCF7BC
:103F600047FA00BF00BF5F490E980180002009B0EA
:103F7000F0BD00BF089860622046083001900198AB
:103F8000008900280DD100BF04F024FA00BF00987A
:103F9000FCF72EFA00BF00BF00210E980180206AB6
:103FA000E5E701980768BD6857E0786802907C20D3
:103FB000405B0007000F0390039801281FD00228E0
:103FC0002AD0042802D0082832D10CE0206A696F78
:103FD00008400646686FB04204D131462846089A28
:103FE000FFF751FF32E0206A696F08400646002E55
:103FF00004D031462846089AFFF745FF26E0686F4F
:10400000216A88430646686FB04204D1314628468B
:10401000089AFFF738FF19E0686F216A884306465F
:10402000002E04D031462846089AFFF72CFF0DE0F9
:1040300000BF04F0CFF900BF0098FCF7D9F900BF2A
:1040400000BF29490E980180002090E700BF029F21
:10405000002F01D0BD6800E00025002DA5D100BFD4
:1040600004F0B8F900BF0098FCF7C2F900BF00BF28
:104070000121C90307980840002801D1FEF79AFDE5
:1040800000BF00BFFCF7B0F9009000BF04F0C2F918
:1040900000BF206A049000BF04F09CF900BF0098A4
:1040A000FCF7A6F900BF00BF00210E98018004981C
:1040B0005DE7FEB505460E4617461C46FCF76FF950
:1040C000019000943A4631462846019BFFF70EFFC7
:1040D00002900298FEBD0021044A1160044A11803A
:1040E00001807047255E0000FF3A000068E0FF1F76
:1040F0006CE0FF1F0021816164490968002901D13A
:10410000C16105E061490968C16160490968886168
:104110005E4908607047FFB585B0044615461F46E6
:10412000002001905A480078002804DD59490F9872
:10413000018009B0F0BD02952E46781E80B2039032
:104140000020049008E00E98361802980660029647
:104150000498401C80B20490039904988842F2DBD2
:1041600000210298016000BF00BFFCF73DF90190FB
:1041700000BF04F04FF900BF474820600698A060D8
:104180006560E560A78267820E9820822046FFF76F
:10419000B1FF42480088401C4049088000BF04F03D
:1041A00019F900BF0198FCF723F900BF00BF0021F7
:1041B0000F98018000BFBCE7F8B504460D46002704
:1041C00000BF00BFFCF710F9074600BF04F022F95A
:1041D00000BFA08A00280DD100BF04F0FBF800BF8B
:1041E0003846FCF705F900BF00BF2A48093028808F
:1041F0000020F8BDE6683068E060A08A401EA0821A
:1042000000BF04F0E7F800BF3846FCF7F1F800BF44
:1042100000BF002028803046EBE7F8B504460D4685
:104220001646002700BF00BFFCF7DEF8074600BFB8
:1042300004F0F0F800BFA08A618A88420CDB00BF5E
:1042400004F0C8F800BF3846FCF7D2F800BF00BF42
:104250001048401C3080F8BDE0682860E560A08A06
:10426000401CA08200BF04F0B5F800BF3846FCF740
:10427000BFF800BF00BF0020308000BFEBE7002187
:10428000024A1160054A11800180704770E0FF1FEB
:104290005CE0FF1FB95600004D454D2074E0FF1F44
:1042A00070B50246664D286829681031654D2D8825
:1042B0006D1EACB2002308E0016000254560058159
:1042C000C560103010315D1CABB2A342F4DB002599
:1042D000056045600581C560594D2D685A4E3560B1
:1042E000584D2D88B5800025F5803581158070BD2D
:1042F00010B5014648894B89002B17DD0A68524BDF
:104300001B681360504C4B6823602346DB884C8944
:104310001B1B4D4CE38023469B884C891B194A4C40
:10432000A38000234B818B810B604B6010BD01810A
:10433000002242818281026042607047F0B50446EB
:104340000D466089002807D12880002A00D010601F
:104350003E4818800020F0BD61684E6808892880BA
:10436000002A01D0C8681060086860606068002892
:1043700002D12060608102E06089401E6081324885
:1043800000680860304801608088401C2E4FB8806B
:104390003846C088401EF880002018803046DAE792
:1043A000FFB50D460A9C46890789BE4203DB274EAE
:1043B000761C2680FFBD244EB688002E02D1244EE6
:1043C0002680F7E7204E31681F4F0E683E603E465C
:1043D000B688761EBE803E46F688761CFE803E4637
:1043E0003689FF88BE4203DA174EF688164F3E81A3
:1043F0004689002E06D101604160012646810026D3
:104400000E600FE01027039E3E40002E04D103688B
:10441000196001600E6002E046680E6041604689E6
:10442000761C468186894789BE4201DA46898681A3
:104430004D600A81099ECE600026268000BFB9E744
:104440002092000018920000EC0600209265000007
:104450001D570000FAA1C16100214161F9490968B5
:10446000002901D1816105E0F64909688161F549BA
:1044700009684861F34908607047F8B504460E467C
:1044800015460027F0480078002802DDEF48288014
:10449000F8BD00BF00BFFBF7A7FF074600BF03F052
:1044A000B9FF00BFEA48206066600020206200215A
:1044B000252001550020A0624021242001552046DE
:1044C0000830FEF7F5FE2046FFF7C4FFE1480088FC
:1044D000401CE049088000BF03F07CFF00BF384665
:1044E000FBF786FF00BF00BF0020288000BFCFE79A
:1044F00010B50446D8482060D8A060600020206233
:104500000021252001550020A062402124200155D2
:1045100020460830FEF7CCFE10BD42698169002AB2
:1045200008D1C84B1960002901D000234B6100233A
:1045300083610AE0002903D100239361436104E011
:1045400091614A610023836143617047F7B586B08A
:104550000546164600200090BB480078002804DD80
:10456000C0483080002009B0F0BD00BF00BFFBF79D
:104570003BFF009000BF03F04DFF00BF284608300E
:1045800003900398078905970798002802D001280F
:104590007ED125E00598002816D12846FFF7BDFFFB
:1045A000AC480088401EAB4908802846FFF7A0FFB2
:1045B00000BF03F00FFF00BF0098FBF719FF00BF1B
:1045C00000BF002030800AE000BF03F003FF00BFFF
:1045D0000098FBF70DFF00BF00BFA348308079E0D3
:1045E0002C6A002C3CD03720015D2420405D8142A4
:1045F00036D03620005D030004F09AFD0805141B38
:104600001C15161D1E242046FEF793FC2420415D38
:10461000372001553721085D00F020FB2046FEF7CA
:104620005FFD1CE000BF00BF2420415D3720015525
:1046300015E000BF00BF00BF2420415D2046FEF70B
:1046400018FE0CE000BF03F0C5FE00BF0098FBF7AA
:10465000CFFE00BF00BF85483080002083E700BF49
:10466000FBF79DFE01900CE003980068049004980D
:10467000806802902846019A0299FEF741FE781E52
:1046800087B2002FF0D12846FFF747FF714800E0BE
:1046900014E00088401E6F4908802846FFF728FF75
:1046A00000BF03F097FE00BF0098FBF7A1FE00BF1C
:1046B00000BFFEF77FFA002030800BE000BF03F060
:1046C00089FE00BF0098FBF793FE00BF00BF68485B
:1046D000308000BF00BF059845E7FFB589B00546AB
:1046E0001C46129E0020009057480078002803DDE9
:1046F000604830800DB0F0BD002C01D0002020605B
:1047000000BF00BFFBF770FE009000BF03F082FE09
:1047100000BF2520405D00281BD157480068286253
:10472000554800682030C17D2420415501212520B5
:104730004155002C01D0A86A206000BF03F04AFE5A
:1047400000BF0098FBF754FE00BF00BF0020308080
:10475000D0E74949286A0968884215D12520405D7B
:10476000401CC1B225204155002C01D0A86A206010
:1047700000BF03F02FFE00BF0098FBF739FE00BF1B
:1047800000BF3E483080B5E70121C9030B980840BF
:1047900000280CD000BF03F01DFE00BF0098FBF7FF
:1047A00027FE00BF00BF3348801C3080A2E734489A
:1047B000007800280CDD00BF03F00CFE00BF00985D
:1047C000FBF716FE00BF00BF2848CA38308091E7CB
:1047D0002F6A3720C15D284800682030C07D8142A3
:1047E0005DDD3620C05D030004F0A2FC0805161F45
:1047F00020181721224C3846FEF79BFB1E48006804
:104800002030C17D3720C1553721C85D00F026FA20
:104810003846FEF748FC41E000BF00BF164800687C
:104820002030C17D3720C15538E000BF00BF00BF38
:10483000114800682030C17D3846FEF71AFD2DE092
:104840002000000078E0FF1F5CE0FF1FE12E000069
:104850004D5554587CE0FF1F4E4F4E453F4D55542B
:1048600045580000C93200005F7100002D6E000045
:10487000255E0000AE61000000E1FF1F82570000CE
:1048800098E0FF1F00BF03F0A5FD00BF0098FBF7F5
:10489000AFFD00BF00BFD94830802BE700BF042226
:1048A000294601A80A9BFEF784FB00BF03F092FD96
:1048B00000BF0098FBF79CFD00BF00BFFEF77AF930
:1048C00000BF00BFFBF790FD009000BF03F0A2FD0A
:1048D00000BFCB4800682030407D002806D001286A
:1048E0000DD002281BD0032822D111E0002C03D0C8
:1048F000C3480068006C2060002030801CE0002C61
:1049000003D0BF480068006C2060BE48308013E0D0
:10491000002C01D000202060BB4830800CE0002C2F
:1049200003D0B7480068006C2060B848308003E0CE
:10493000B248401C308000BF00BF00BF03F04AFDFA
:1049400000BF0098FBF754FD00BF00BF00BFD1E6D9
:10495000F7B586B00646174600200190AC480078AF
:10496000002805DDA748401C3880002009B0F0BDB4
:1049700000BF00BFFBF738FD019000BF03F04AFD08
:1049800000BF35460835288900280DD100BF03F047
:1049900021FD00BF0198FBF72BFD00BF00BF994828
:1049A000801C38800020E1E700200390FBF7F7FC33
:1049B000049060E0286880680590346A3720005DC4
:1049C0000290002C13D03720015D2420805D8142AD
:1049D0000DD028684068002806D0286840688068A4
:1049E0002030C07D029002E02420805D02903720BC
:1049F000015D029881422FD03620005D030004F053
:104A000097FB080512181913141A1B202046FEF7ED
:104A100090FA372102980855085D00F01FF92046EA
:104A2000FEF75EFB17E000BF00BF37210298085574
:104A300011E000BF00BF00BF20460299FEF719FC3D
:104A400009E000BF03F0C6FC00BF0198FBF7D0FCF3
:104A500000BF00BF00BF00BF3046049A0599FEF7B3
:104A60006FFB0398401C80B20390FF21013107982F
:104A7000884200D002E0288900289BDC00BF00BFEC
:104A800003F0A8FC00BF0198FBF7B2FC00BF00BF19
:104A90000121C90307980840002801D1FEF78AF8D0
:104AA00000203880039861E7F7B584B004461546C6
:104AB0000020029056480078002804DD51486530F7
:104AC000288007B0F0BD00BF00BFFBF78DFC02904F
:104AD00000BF03F09FFC00BF4949206A0968884273
:104AE0000BD000BF03F076FC00BF0298FBF780FC00
:104AF00000BF00BF47482880E3E7FBF750FC0746AC
:104B0000A7622520005D401EC1B225200155005D31
:104B100000280CDD00BF03F05DFC00BF0298FBF72E
:104B200067FC00BF00BF3B48801C2880C9E72046C7
:104B3000083003900398008900280FD120620021DB
:104B40002520015500BF03F045FC00BF0298FBF78C
:104B50004FFC00BF00BF00202880B2E72848006853
:104B60002030C17D2420005D814219D02448006896
:104B7000FEF7DFF92420015D214800682030C1756F
:104B80001F4909682031C87D00F068F81C4800689A
:104B9000FEF7A6FA1A4800682030C07D1E4908704A
:104BA00003980068866826623720815D24200155BD
:104BB00001212520015500231A4631462046009741
:104BC000FEF712FC00BF03F005FC00BF0298FBF7E4
:104BD0000FFC00BF00BF0121C90305980840002851
:104BE00001D1FDF7E7FF0020288000BF69E7002121
:104BF0000A4A11600A4A1180018070472D6E000038
:104C000000E1FF1FA9610000D9720000C25D000031
:104C10005CE0FF1F815700007EE0FF1F78E0FF1F70
:104C20007CE0FF1F002004E0002182001D4B995012
:104C3000401C0228F8D3704770B50025194C03E0DA
:104C400028462030C5B2241D20680028F8D02068EE
:104C500003F035FD4019C5B2284670BD70B5420954
:104C6000C306DB0E01211F24E51A0C46AC40214689
:104C700094000C4D2C590C4395000A4E745170BD94
:104C800070B54209C306DB0E01211F24E51A0C464C
:104C9000AC4021469400034D2C598C439500014EA5
:104CA000745170BD34E0FF1FFCA1C161002141615E
:104CB000FB490968002901D1816105E0F8490968CB
:104CC0008161F74909684861F54908607047F8B59E
:104CD00004460E4617461D4600200090F148007815
:104CE000002802DDF0482880F8BD00BF00BFFBF7B8
:104CF0007BFB009000BF03F08DFB00BFEB48206002
:104D00006660394620462030FFF711FB2046083008
:104D1000FEF7CEFA2046FFF7C7FFE5480088401CA3
:104D2000E349088000BF03F055FB00BF0098FBF784
:104D30005FFB00BF00BF0020288000BFD4E710B594
:104D4000044620462030FFF7D3FADA482060DAA084
:104D50006060002120462030FFF7E9FA2046083045
:104D6000FEF7A6FA10BD42698169002A08D1CC4B32
:104D70001960002901D000234B61002383610AE000
:104D8000002903D100239361436104E091614A61EA
:104D90000023836143617047F7B584B01446002057
:104DA0000090C0480078002804DDC448208000201E
:104DB00007B0F0BD00BF00BFFBF716FB009000BFBF
:104DC00003F028FB00BF0498074608373D892E46AC
:104DD0000598002802D0012850D124E0002E16D1D9
:104DE0000498FFF7C0FFB2480088401EB049088011
:104DF0000498FFF7A4FF00BF03F0ECFA00BF00988F
:104E0000FBF7F6FA00BF00BF002020800AE000BFD9
:104E100003F0E0FA00BF0098FBF7EAFA00BF00BF1A
:104E2000A748208036E0FBF7BAFA01900BE038681B
:104E30000390039880680290019A02990498FEF703
:104E40005FFA681E85B2002DF1D10498FFF78BFF41
:104E500097480088401E964908800498FFF76FFF26
:104E600000BF03F0B7FA00BF0098FBF7C1FA00BF1C
:104E700000BFFDF79FFE002020800BE000BF03F085
:104E8000A9FA00BF0098FBF7B3FA00BF00BF8D4836
:104E9000208000BF00BF30468AE7F8B505460C46C3
:104EA000002680480078002804DD3B200002208096
:104EB0000020F8BD00BF00BFFBF796FA064600BF12
:104EC00003F0A8FA00BF28462030FFF711FA074682
:104ED00000BF03F07FFA00BF3046FBF789FA00BF3E
:104EE00000BF002020803846E3E7FFB58BB00746BF
:104EF0001E46159D149C002001906A4800780028E9
:104F000004DD7148288000200FB0F0BD002C01D0D6
:104F10000020206000BF00BFFBF766FA019000BFD1
:104F200003F078FA00BF2B4622463146384620303F
:104F3000FFF704FA0290288800280AD100BF03F086
:104F400049FA00BF0198FBF753FA00BF00BF02986F
:104F5000DAE70121C9030D98084000280DD000BFF1
:104F600003F038FA00BF0198FBF742FA00BF00BF18
:104F70005548801C28800020C6E754480078002847
:104F80000CDD00BF03F026FA00BF0198FBF730FAF2
:104F900000BF00BF4E4828800020B5E705223946F3
:104FA00003A80C9BFEF705F800BF03F013FA00BF3F
:104FB0000198FBF71DFA00BF00BFFDF7FBFD00BF26
:104FC00000BFFBF711FA019000BF03F023FA00BF06
:104FD000404800682030407D002806D0012816D0C7
:104FE00002282AD0032835D11EE03A480068006D17
:104FF0000290384800684030808A3080002C03D00E
:1050000034480068006C20600020288029E00020DF
:1050100002903080002C03D02E480068006C206085
:105020002948401F28801CE0002002903080002C7E
:1050300000D020602848288013E0002002903080B3
:10504000002C03D023480068006C20601D486338A2
:10505000288006E00020029030801D48CB30288058
:1050600000BF00BF00BF03F0B5F900BF0198FBF718
:10507000BFF900BF00BF029846E7F7B584B00E46FF
:1050800014460020019007480078002826DD0E48CD
:10509000001F2080002007B0F0BD000020000000AD
:1050A00084E0FF1F5CE0FF1FE12E000051554555D5
:1050B00088E0FF1F4E4F4E453F510000C9320000AF
:1050C0005F710000255E0000AE61000098E0FF1FE8
:1050D000636D000000E1FF1FD972000000BF00BF38
:1050E000FBF782F9019000BF03F094F900BF049828
:1050F00005460835288900280DD100BF03F06AF95C
:1051000000BF0198FBF774F900BF00BF584820802A
:10511000002007B0F0BD0027FBF741F902900EE038
:10512000286880680390029A03990498FEF708F8AB
:10513000781C87B2FF200130864200D002E0288927
:105140000028EDDC00BF00BF03F044F900BF019868
:10515000FBF74EF900BF00BF0120C003304000281C
:1051600001D1FDF727FD002020803846D1E7FFB5AB
:1051700087B007461C460020029000BF00BFFBF727
:1051800033F9029000BF03F045F900BF3E460836F0
:10519000308900281DD110202040002801D1069020
:1051A00001E0102006901199109801910090384666
:1051B0002030069B099A0899FFF7F2F800BF03F028
:1051C00009F900BF0298FBF713F900BF00BF0BB04D
:1051D000F0BD012040022040002801D0358900E0C8
:1051E00001253068059011E00598806803900598C6
:1051F00040680490109800903846099B089A0399DB
:10520000FEF7F2F804980590681E85B2002DEBD1E8
:1052100000BF03F0DFF800BF0298FBF7E9F800BF1A
:1052200000BF0120C0032040002801D1FDF7C2FCCF
:1052300000211198018000BFC9E7FFB583B0044683
:105240000D4616460C9FFBF7AAF8029002980197AC
:105250000090324629462046069BFFF788FF07B09C
:10526000F0BD0021034A1160034A1180018070479C
:10527000AB61000084E0FF1F88E0FF1FF9A1C1615E
:1052800000214161F8490968002901D1816105E0E7
:10529000F54909688161F44909684861F249086083
:1052A0007047F8B504460E4617461D46002000908C
:1052B000EE480078002802DDED482880F8BD00BFE8
:1052C00000BFFBF791F8009000BF03F0A3F800BF08
:1052D000E84820602762002060626660204608304F
:1052E000FDF7E6FF2046FFF7C9FFE3480088401CB2
:1052F000E149088000BF03F06DF800BF0098FBF79C
:1053000077F800BF00BF0020288000BFD6E710B5A7
:105310000446DA482060002020626062D8A0606005
:1053200020460830FDF7C4FF10BD42698169002A9C
:1053300008D1CD4B1960002901D000234B61002317
:1053400083610AE0002903D100239361436104E0F3
:1053500091614A610023836143617047F7B584B06E
:10536000144600200090C1480078002804DDC6489B
:105370002080002007B0F0BD00BF00BFFBF734F86D
:10538000009000BF03F046F800BF049807460837B6
:105390003D892E460598002802D0012850D124E0EE
:1053A000002E16D10498FFF7C0FFB3480088401EB6
:1053B000B14908800498FFF7AAFF00BF03F00AF87C
:1053C00000BF0098FBF714F800BF00BF002020804A
:1053D0000AE000BF02F0FEFF00BF0098FBF708F8EC
:1053E00000BF00BFA948208036E0FAF7D8FF01903F
:1053F0000BE038680390039880680290019A029944
:105400000498FDF77DFF681E85B2002DF1D1049848
:10541000FFF78BFF98480088401E97490880049842
:10542000FFF775FF00BF02F0D5FF00BF0098FAF745
:10543000DFFF00BF00BFFDF7BDFB002020800BE0B9
:1054400000BF02F0C7FF00BF0098FAF7D1FF00BF0E
:1054500000BF8F48208000BF00BF30468AE7FFB5FD
:1054600089B005461C46129E002000907F480078B7
:10547000002804DD8748308000200DB0F0BD002CEE
:1054800001D00020206000BF00BFFAF7ADFF009000
:1054900000BF02F0BFFF00BF286A002814D0286AAE
:1054A000401E2862002C01D0686A20602F6A00BF6D
:1054B00002F090FF00BF0098FAF79AFF00BF00BF0C
:1054C000002030803846D8E70121C9030B980840F6
:1054D00000280ED02F6A00BF02F07CFF00BF0098AA
:1054E000FAF786FF00BF00BF6A48801C308038464C
:1054F000C3E76948007800280CDD00BF02F06AFFAE
:1055000000BF0098FAF774FF00BF00BF6348308007
:105510000020B2E70622294601A80A9BFDF749FDB3
:1055200000BF02F057FF00BF0098FAF761FF00BF0D
:1055300000BFFDF73FFB00BF00BFFAF755FF00902B
:1055400000BF02F067FF00BF554800682030407D73
:10555000002806D001280DD002281CD0032824D111
:1055600012E0002C03D04E480068006C2060002040
:10557000308028E0002C03D049480068006C20608F
:105580004448401F30801EE0002C01D000202060E5
:105590004448308017E0002C03D041480068006C7C
:1055A00020603B48633830800DE03C48CB30308091
:1055B00000BF02F00FFF00BF0098FAF719FF00BF0D
:1055C00000BF002059E700BF2F6A00BF02F002FFB2
:1055D00000BF0098FAF70CFF00BF00BF38464CE749
:1055E000F7B584B00E461446002001901F4800789D
:1055F000002805DD2748001F2080002007B0F0BDEF
:1056000000BF00BFFAF7F0FE019000BF02F002FFFA
:1056100000BF049805460835288900280DD100BF31
:1056200002F0D8FE00BF0198FAF7E2FE00BF00BF0B
:105630001848C01E20800020E0E70027FAF7AFFEE0
:10564000029031E0286880680390029A03990498D8
:10565000FDF776FD781C87B2FF200130864223D00B
:1056600025E00000200000009CE0FF1F5CE0FF1F21
:10567000E12E000053454D41A0E0FF1F4E4F4E4527
:105680003F53454D00000000C93200005F7100002B
:10569000255E0000AE61000098E0FF1F636D000012
:1056A00000E1FF1FD972000028890028CADC00BF72
:1056B00000BF02F08FFE00BF0198FAF799FE00BF0D
:1056C00000BF0120C0033040002801D1FDF772FA6D
:1056D00000202080384691E7FFB587B004461D467C
:1056E0000020029000BF00BFFAF77EFE029000BFCC
:1056F00002F090FE00BF274608373889002853D1B2
:105700000420012804D0022814D0042836D123E034
:10571000206AFF280DD100BF02F05CFE00BF029896
:10572000FAF766FE00BF00BF5F48288000200BB07C
:10573000F0BD24E05D49206A88420CD100BF02F030
:1057400049FE00BF0298FAF753FE00BF00BF56485B
:1057500028800020EBE712E0206A401C00280CD1D2
:1057600000BF02F037FE00BF0298FAF741FE00BF0B
:1057700000BF4D4828800020D9E700E000BF00BFEF
:10578000206A401C2062206A06900998606200BF6F
:1057900002F020FE00BF0298FAF72AFE00BF00BF09
:1057A000002028800698C2E7012149020898084095
:1057B000002801D03E8900E001263868059011E0FC
:1057C0000598806803900598406804900998002324
:1057D0001A46009020460399FDF706FE04980590AE
:1057E000701E86B2002EEBD1206A069000BF02F038
:1057F000F1FD00BF0298FAF7FBFD00BF00BF0121D9
:10580000C90308980840002801D1FDF7D3F900200A
:10581000288006988BE7F8B505460E461446FAF739
:10582000BEFD0090234631462846009AFFF754FFFC
:1058300007463846F8BDF8B504460E461546002022
:1058400000901B480078002803DD1748401C288082
:10585000F8BD0020288000BF00BFFAF7C5FD00900A
:1058600000BF02F0D7FD00BF206A002801D02662E9
:1058700008E0274608373889002801D1266201E070
:105880000C48288000BF02F0A5FD00BF0098FAF781
:10589000AFFD00BF00BF00BFDAE70021064A11607C
:1058A000064A118001807047C56D0000FFFF0000AF
:1058B0005CE0FF1F5F7100009CE0FF1FA0E0FF1F86
:1058C000F8B507460020009000BF00BFFAF78CFD36
:1058D000009000BF02F09EFD00BF0020FC49088040
:1058E000FC490860FC490860FC490860FC49086004
:1058F000FC490860FC49088100BF02F06BFD00BF55
:105900000098FAF775FD00BF00BF00BF00BFFAF7AF
:105910006BFD009000BF02F07DFD00BFF3480468FE
:1059200000BF02F057FD00BF0098FAF761FD00BF0D
:1059300000BF2EE000BF00BFFAF756FD009000BF89
:1059400002F068FD00BF0021A8200151AC200151E8
:105950000020E0669C2001518420015180200153E9
:10596000822001539020015194200151FAF717FD34
:105970008C210851264658360020B081B4200459A5
:1059800000BF02F027FD00BF0098FAF731FD00BF0D
:1059900000BF002CCED100BF00BFFAF725FD00905C
:1059A00000BF02F037FD00BFD148056800BF02F01C
:1059B00011FD00BF0098FAF71BFD00BF00BF16E005
:1059C00000BF00BFFAF710FD009000BF02F022FDFB
:1059D00000BF2E4620360020B081AD6900BF02F026
:1059E000F9FC00BF0098FAF703FD00BF00BF002DCF
:1059F000E6D101F061FE02F033FB00203880F8BDF3
:105A0000F8B5044600266946BA4801F0ECFB684642
:105A10000088002803D0684600882080F8BD6A46C8
:105A20000021022001F04AFE68460088002803D0C9
:105A3000684600882080F1E700BF00BFFAF7D4FC79
:105A4000064600BF02F0E6FC00BF0020AA4908603D
:105A500000BF02F0BFFC00BF3046FAF7C9FC00BF30
:105A600000BF0025A5480068A5490968884206D9F5
:105A7000A3480168A148006803F07BFA0546002DA1
:105A800005D10A219D48006803F073FA05466A466D
:105A90000021284601F012FE6946964800F0D9FF21
:105AA00068460088002803D0684600882080B5E753
:105AB00000BF00BFFAF798FC064600BF02F0AAFC40
:105AC00000BF0020834908608B4800688D4908604A
:105AD00001208D49087000BF02F07CFC00BF3046F9
