S01E00004D69637269756D5F4652444D2D4B4C34365A5F4F53332E73726563EC
S1130000903100207D450000914500009545000099
S11300109945000099450000994500009945000064
S11300209945000099450000994500009945000054
S113003099450000994500000B3500004D0F000064
S1130040B53B0000BF3B0000C93B0000D33B0000B0
S1130050DD3B0000E73B0000F13B0000FB3B000000
S1130060053C00000F3C0000193C0000233C00004C
S11300702D3C0000373C0000413C00004B3C00009C
S1130080553C00005F3C0000693C0000733C0000EC
S11300907D3C0000873C0000913C00009B3C00003C
S11300A0A53C0000AF3C0000B93C0000C33C00008C
S11300B0CD3C0000D73C0000E13C0000EB3C0000DC
S11300C00B0007050C0D0F080F0D0E0F0B070F0E7D
S11300D00E060C0E060A0A0E0E0E0E02080608087C
S1130410FEB584B004000025149E414800780028ED
S113042002D08348308078E00CA800783F2805D1BA
S11304308048844202D03B4830806EE0200000F0C7
S1130440B1FA002030800D9D0F9F139EF0070AD54E
S1130450B00708D52800002103E000220260001D37
S1130460491CB942F9D30E98042148432818029034
S1130470B6B201960097029B2A000699059800F0EF
S1130480E8FC0599A1620699E162049921620CA92C
S113049009783722A15420600298A0606846129817
S11304A060606562A763A687002006E00021C0B2F1
S11304B004224243A2181167401CC0B20028F5D0A0
S11304C010992000583000F0F4FD200000F0A6FC44
S11304D000F004FE050000F095FE3720205C00F0DB
S11304E077FF200001F0C7FB200000F007FA524814
S11304F00088401C5049088050480078012805D0E5
S113050000F094FE280000F0EDFD06E000F08EFE01
S1130510280000F0E7FD01F08BF807B0F0BD000003
S11305208429002073620000F8B505000C00002641
S113053043480078002802D0424820804AE03D48E1
S1130540854202D14048208044E0002D0BD100F0C8
S1130550C5FD060000F056FE3C48056800F066FE46
S1130560300000F0BFFD00F0B9FD060000F04AFEC7
S11305703620285C00280BD0022831D02CD3042844
S113058029D02DD306282BD026D3072828D045E000
S1130590280001F08DFB2800583000F067FD0700AB
S11305A0280000F044FC280000F0C2F9224800882A
S11305B0401E21490880280000F0F4F9FF20363558
S11305C0287000F033FE300000F08CFD0020208005
S11305D001F02EF8F1BDDEE7280001F0EFFCDAE7C8
S11305E03420285C002808D0401E07D0401E04D0C8
S11305F0401E032802D9001F04D103E0280001F0A3
S11306003FFAFFE73620285C032803D03620285C15
S1130610072802D1280001F0D1FCBCE700F006FE57
S1130620300000F05FFD01482080D3E72D6E00000C
S11306304A7100003C2500207A29002085290020E9
S1130640842900204E7100004C71000060290020B4
S113065070B505000C00002675480078002802D00B
S1130660744820800DE000F039FD060000F0CAFD5A
S113067000F0DCFD300000F035FD2100280000F022
S11306802BFA70BDF1B50F0016001D000024684858
S11306900078002803D0684828800020B7E0002EA6
S11306A001D00020306000F019FD040000F0AAFD24
S11306B057480068406C002834D055480068406CA6
S11306C0401E53490968486451480068476C002E2D
S11306D003D04F480068006C306001F075FD4C4950
S11306E00968096C401A4A49096898310860484801
S11306F000689C3000684649096898310968884256
S113070007D24348006898300068414909689C3121
S1130710086000F08BFD200000F0E4FC002028803D
S1130720380074E0380408D500F080FD200000F0A3
S1130730D9FC70482880002069E06F4800780028C0
S113074008D000F073FD200000F0CCFC774828802E
S113075000205CE0009B07220021002001F08EF8BD
S113076000F064FD200000F0BDFC00F061FF00F02B
S1130770B5FC040000F046FD2548006835300078DB
S1130780002804D0012827D003282ED034E0002EDE
S11307901FD01F480068006C306001F015FD1C4933
S11307A00968096C401A1A490968983108601848A0
S11307B000689C30006816490968983109688842C5
S11307C007D21348006898300068114909689C31C1
S11307D008600020288011E0002E03D00C48006837
S11307E0006C30606B48288008E0002E01D00020A7
S11307F030606948288001E068482880044800681F
S1130800476C00F013FD200000F06CFC3800F2BDD2
S11308106029002070B504000D00160001F0D4FC1E
S113082033000200290089B2200000F0DBF970BD1A
S11308308429002055710000AE610000F2B5040067
S113084017001D0000269C480078002802D09B4811
S113085028803DE000F042FC060000F0D3FC002CB0
S113086001D14F480468206800280CD100F0DEFC58
S1130870300000F037FC0020009908600020386048
S11308808F48288024E03C20205CC0070CD400F072
S1130890CDFC300000F026FC002000990860002008
S11308A038608848288013E000F0C0FC300000F075
S11308B019FC0020616A01E0091D401C0A68002A35
S11308C0FAD000990860A16B081A386000202880CB
S11308D0F1BD80B5784A1278002A02D07A4808809F
S11308E007E07A4A904202D17948088001E000F09A
S11308F0F1F901BDB06100008929002000B5002193
S1130900B022815073490968002903D10021B4221F
S1130910815007E06F490968B42281506D49096824
S1130920B03108606B49086000BD0000636D0000D1
S113093000B5B0214258B4214158002A0AD1654A71
S11309401160002902D00022B0310A600021B430C5
S1130950016012E0002906D10021B43211600021A7
S1130960B030016009E0B423D150B0310A600021F5
S1130970B42281500021B030016000BD0021554AED
S113098011600021944A11800021944A11600021D1
S113099001807047A9610000D97200002E6E00002A
S11309A06029002010B50400002020600020A06011
S11309B0002060600020E060002020610020606171
S11309C00020A0610020E061854820620020606270
S11309D00020A0620020E062002020630020E08765
S11309E00020206400202065002054216052002152
S11309F02000583000F05DFB0020A0660020E06677
S1130A000020606700207C2160520020A067002045
S1130A1006E00021C0B204224243A2181167401C20
S1130A20C0B20028F5D000206064002098216050F6
S1130A3000209C2160500020A06300207E2160548F
S1130A400020A42160500020A02160500020A08735
S1130A500020A0640020E064002080216052002077
S1130A60822160520020842160500020882160503F
S1130A7001F0AAFB8C2160500020902160500020DE
S1130A80A82160500020AC21605000203421605423
S1130A900020352160540020362160544020372145
S1130AA060540020B02160500020B421605087A021
S1130AB0B834206010BD0000842900205971000062
S1130AC052710000547100005D7100003C2500204B
S1130AD05B7100003C29002070B505000C00002665
S1130AE000F0FCFA060000F08DFB00202080362088
S1130AF0285C0028032808D9001F10D0401E23D0EA
S1130B00401E33D0401E43D054E000F08FFB300031
S1130B1000F0E8FAAB48208000F08AFD70BD7E202A
S1130B20285C401E7E2168547E20285C002805D164
S1130B30002036216854280001F06BF800F076FBA1
S1130B40300000F0CFFAE7E77E20285C401E7E21CB
S1130B5068547E20285C002802D101203635287094
S1130B6000F064FB300000F0BDFAD5E77E20285C7D
S1130B70401E7E2168547E20285C002802D1022079
S1130B803635287000F052FB300000F0ABFAC3E7B2
S1130B907E20285C401E7E2168547E20285C00282C
S1130BA002D103203635287000F040FB300000F0FD
S1130BB099FAB1E700F03AFB300000F093FA80486C
S1130BC02080ABE780B58048006800F039F96946B9
S1130BD00020FFF7A9FC01BD7A2900203829002054
S1130BE0AC460000F4B582B004000E001F000025DE
S1130BF000F074FA050000F005FB002C01D1344824
S1130C00046802982064002038803620205C002884
S1130C10012809D9801E01281ED9801E012803D964
S1130C20801E012818D946E0606C0021C94388421F
S1130C3008D100F0FBFA280000F054FA6348388029
S1130C40002041E0606C401C6064646C00F0EEFACB
S1130C50280000F047FA36E03420205C072812D13F
S1130C6002980090002300222100002000F041FFA0
S1130C70646C00F0DBFA280000F034FA300419D474
S1130C8000F0D6FC16E0606C0021C943884208D10C
S1130C9000F0CCFA280000F025FA4C4838800020F7
S1130CA012E0606C401C6064646C00F0BFFA2800C1
S1130CB000F018FA07E000F0B9FA280000F012FA80
S1130CC03F48388000242000FEBD000020000000C2
S1130CD06029002070B505000C00002600F0FEF924
S1130CE0060000F08FFA002D01D137480568364818
S1130CF0006885420BD136480078002807D000F000
S1130D0095FA300000F0EEF9324820801FE0002010
S1130D1020803620285C002809D0401E18D0401EB0
S1130D2022D0401E2CD0401E032835D93FE0042099
S1130D303621685401207E216854280000F0B8FF51
S1130D4000F074FA300000F0CDF900F071FC70BDD1
S1130D5005203621685401207E35287000F066FA9B
S1130D60300000F0BFF9F0E7062036216854012076
S1130D707E35287000F05AFA300000F0B3F9E4E749
S1130D8007203621685401207E35287000F04EFA81
S1130D90300000F0A7F9D8E77E20285C401C7E359F
S1130DA0287000F043FA300000F09CF9CDE700F021
S1130DB03DFA300000F096F901482080C7E70000B2
S1130DC02D6E00005371000060290020C56D0000E5
S1130DD089290020636D000080B5724800680028EE
S1130DE002D070480068804701BD6F480068042144
S1130DF048436E49096808186D4908606C480068E2
S1130E00072188436A490860704780B569480068CB
S1130E10002802D067480068804701BD80B5664954
S1130E200968002902D064490968884701BD80B572
S1130E3062490968002902D060490968884701BDF0
S1130E4080B55F490968002902D05D49096888476F
S1130E5001BD30B404000298042568431018072229
S1130E609043001F802252040260001F0460001F90
S1130E70544A0260001F544A0260001F534A026031
S1130E80001F534A0260001F0360001F0160001F1F
S1130E9050490160001F50490160001F4F49016023
S1130EA0001F4F49016030BC704780B54D48006851
S1130EB0002802D04B480068804701F085F94A4970
S1130EC009684A4A1268914215D0474909688C3129
S1130ED00968411A444A1268883211604249096813
S1130EE090310968404A12688832126889183E4A6B
S1130EF01268903211603D4909688C31086000F035
S1130F0055F939490968A8310968814203D236493B
S1130F100968A831086034480068AC300068344976
S1130F200968884205D2324800682F490968AC3103
S1130F30086000202E49086001BD80B52D48006876
S1130F40002802D02B480068804701BD10B500245A
S1130F5000F0C4F8040000F055F927480078401C5C
S1130F602549087000F062F9200000F0BBF801F098
S1130F70F7F900F003FB10BD401E2049086020482B
S1130F8000680002000A1E4908601E480068052126
S1130F9001431C4801601B480068022101431948B1
S1130FA001607047F0280020C8460000C4460000D5
S1130FB0E0280020F4280020E4280020E82800206D
S1130FC0EC280020C50B00001212121203030303C5
S1130FD002020202070707070606060605050505BD
S1130FE004040404F8280020602900206429002057
S1130FF020290020FC2800208429002014E000E09F
S113100020ED00E010E000E030B52F4909682E4AD9
S1131010126810322D4B1B885C1E002309E00A6005
S113102000254D6000250D810025CD601031103262
S11310305B1C9BB2A4B2A342F1D300220A6000223B
S11310404A6000220A810022CA601F490968204AB6
S113105011601E4909881E4A918000211C4AD180D2
S113106000211B4A11810021018030BD00B501001F
S113107048894A89002A1AD00A68154B1B681360EC
S11310804A68134B1A60124AD2884B89D21A104B01
S1131090DA800F4A92884B89D2180D4B9A8000222D
S11310A04A8100228A8100220A6000224A6080B2BA
S11310B000BD018100214181002181810021016065
S11310C00021416070470000D4460000FE25000066
S11310D09828002072B6704762B67047EFF310800C
S11310E072B6704780F31088704730BF704720BFD6
S11310F0704738B4012100220368001D002B0BD077
S11311000468001D0C4202D04D466D1E6419226015
S1131110241D1B1FF0D0FAE732BC704780B500F0E5
S1131120CFF800F0DFF800F0C7F801BD00B5FEE726
S113113010B50024FFF7D2FF040000F063F810217B
S11311405B4801F04EF900F071F82000FFF7CAFF88
S113115010BD70B506000D000024002D01D1FFF76D
S1131160E5FF002E02D10A2028801BE01021300068
S113117001F0A2F9102812D2FFF7B0FF040000F02A
S113118041F8102231004A4801F0A4F9060000F0A9
S11311904DF82000FFF7A6FF0020288002E0FA2087
S11311A08000288070BD43490860704738B500242A
S11311B000F00CF80500FFF791FF040000204449FB
S11311C008602000FFF78EFF280032BD38B50025E7
S11311D0FFF784FF05003E4804682800FFF782FFFC
S11311E0200000F0BFF832BD38B50025FFF776FFC8
S11311F00500384804682800FFF774FF200000F059
S1131200B1F832BD80B534480088401C32490880AA
S113121032480088002803D100F0D6FF3049086026
S11312202E480088401C2D49088001BD80B52B48FC
S11312300088401E2949088028480088002814D1C5
S113124000F0C2FF45490860444800682449096821
S1131250401A1F490968814201D21D4908601D498D
S11312600968814201D21B49086001BD80B500F0C4
S113127001F802BD00B58021490288420CD38021C7
S11312804904884203D3000E3C49085C0EE0000C7C
S11312903A49085C083009E0FF2804D9000A3749B4
S11312A0085C103002E03549085C183000BD0000CD
S11312B088280020C028002080B5FFF739FF01BD31
S11312C080B500202E49086000F076FF01BD0000C3
S11312D0D0280020D4280020682900206A29002072
S11312E0C428002070B5002400202649088000206E
S11312F02549088000202549086000201749086016
S11313000020174908600020214908600020214975
S113131008600025FFF7E2FE040000260AE0002032
S11313200F490860FFF76EFFFFF780FF0C48006865
S11313302D18761CB6B2002EF1D02800012101F040
S113134007F9144908600020054908600020104985
S113135008602000FFF7C6FE70BD0000C82800200A
S1131360D028002000B50B490968814203D20949FD
S11313700968401A00E0002000BD0000044300009A
S1131380C0280020682900206A290020C4280020E1
S1131390D4280020CC28002000B5002005E000213E
S11313A004224243204B9950401C0228F7D300BD2D
S11313B010B500241C4801E02034001D01680029F8
S11313C0FAD00068FFF752FF24182000C0B210BD05
S11313D0C0B201004909C0B2C206D20E01201F23C7
S11313E09A1A9040C9B204224A430F4B9A581043A8
S11313F0C9B2042251430C4A50507047C0B2010094
S11314004909C0B2C206D20E01201F239A1A904085
S1131410C9B204224A43044B9A588243C9B20420F5
S11314204143014842507047A428002010B50400ED
S1131430FFF7DBFC00207949087000207849087028
S11314400020784908700020774908600020774917
S1131450086000209249087000209249087000201A
S11314609149087000209149086000209049086063
S11314700020904908609048006800280CD08F48EC
S11314800068002808D08C49096803E0491E00223E
S11314900260001D0029F9D100208949086000205C
S11314A08849086000209E49086000209D49086022
S11314B000209D49086000209C49086000209C4948
S11314C008600020B8490870FFF766FF00F08EFB43
S11314D0200001F095F8208800283FD1200001F079
S11314E09DF82088002839D12000FFF78DFD208841
S11314F0002833D1200001F083FA208800282DD160
S1131500200001F097FA2088002827D1200001F05C
S11315109FFA2088002821D12000FFF72FFA208885
S113152000281BD1200000F083F92088002815D161
S1131530200000F05DFC208800280FD1200001F07D
S1131540D5FC2088002809D1200001F049FD20881D
S1131550002803D101F054FE01F064FF10BD00B572
S11315602F480078012808D1C2480078FA2804DA04
S1131570C0480078401CBF49087000BD10B5002465
S113158027480078012848D1FFF7A8FD0400234824
S11315900078002803D12000FFF7A4FD3DE01F4898
S11315A00078401E1D4908701C480078002803D0AC
S11315B02000FFF797FD30E01A480078002803D098
S11315C02000FFF78FFD28E0FFF7F2FE3549087091
S11315D0344800780C21484394490858134908605A
S11315E01248006810490968884203D12000FFF7B7
S11315F079FD12E00D48006884300068401C0B49F6
S1131600096884310860B5480068401CB349086023
S113161001F077FF2000FFF765FD10BD842900204D
S113162085290020892900206029002064290020C0
S113163010B500248F48007800282FD18E480078F8
S113164000282BD1FFF74AFD0400FFF7B1FE15492E
S11316500870144800780C21484374490858A0497C
S113166008609F4800689F490968884203D12000A8
S1131670FFF738FD12E09A48006884300068401C87
S1131680974909688431086094480068401C93496C
S1131690086001F032FF2000FFF724FD10BD0000B8
S11316A08629002087290020882900201829002065
S11316B01C29002020290020C8460000C446000040
S11316C0E4280020E828002038B5040000256948F3
S11316D00078002802D08448208020E083480078E5
S11316E0012802D08248208019E063480078FA2853
S11316F002DB8048208012E0FFF7F0FC0500FFF7D2
S113170081FD5D480078401C5B49087000F0FEFADA
S1131710FFF78CFD2800FFF7E5FC0020208031BD99
S1131720EC280020F0280020F4280020F8280020CD
S1131730FC28002038B5040000254E480078002815
S113174002D06D4820802EE068480078012802D03D
S11317506748208027E048480078002802D167487D
S1131760208020E0FFF7BAFC0500FFF74BFD42485C
S11317700078401E404908703F480078002807D090
S1131780FFF754FD2800FFF7ADFC824820800AE0F3
S113179000F0C6FAFFF74AFD2800FFF7A3FCFFF7A5
S11317A047FF0020208031BD8C29002010B50400A3
S11317B04E48007800281BD1FFF7FAFD76490870DF
S11317C07548007875490870734800780C214843BF
S11317D01649085842490860414800684149086070
S11317E001204249087001F079FE6D48208001E033
S11317F06C48208010BD10B582B000246846FFF705
S11318006DFC0400FFF7FEFC67480068401C664955
S1131810086066480068401C64490860FFF706FDDC
S11318202000FFF75FFCFFF7D7FAE8E7600E00201F
S113183000B589B000215C4A116008900B20079024
S1131840002006900020059000200490584800686D
S113185003905848006802905748006801903F2060
S113186000900023554A56495648FEF7D1FD09B069
S113187000BD0000842900208929002070B50500DE
S11318800C00190017480068343002700020154A13
S11318901268353210701348006800F058FA002CB2
S11318A00DD026000836EC60012229000D4800689E
S11318B000F026F82900300000F0ACF807E0002022
S11318C008490968C887002006490968086305486B
S11318D00168200000F02DF870BD000038290020B8
S11318E06429002060290020626D00008529002001
S11318F0895E000009520000656D0000646D0000FF
S113190010B5C287016300230EE000244C6000245C
S11319100C6000240C6100244C6100240C8300241E
S1131920CC61886020315B1C9BB292B29342ECD3B1
S113193010BD00B5002809D04268B8310A60010022
S1131940083109688968096AC16111E03420085CBA
S1131950022802D0072804D007E01B48B8310860E9
S113196006E01A48B831086002E019A0B8310860EE
S113197000BD00B516A2B8310A600100083109683B
S1131980002903D08968096AC16101E010A1C1611D
S113199000BD0000636D0000872900208629002017
S11319A0993A00008A5E00000029002028290020BE
S11319B0BC460000B8460000B4460000F71700001B
S11319C0084600003C250020A44600009046000084
S11319D02000000070B537228154066BC48F0EE0DE
S11319E0F56808352889022807D33100280000F05B
S11319F05BF83100280000F00DF82036641EA4B214
S1131A00002CEDD170BD0021016000214160002156
S1131A100181704710B58A68373213780289002A29
S1131A2008D10122028100224A6000220A6001607A
S1131A30416024E00289521C0281026800E052687D
S1131A40002A05D0946837342478DBB2A342F6D256
S1131A50002A06D100224A6043680B605960416045
S1131A600DE01368002B05D1116000230B604A6060
S1131A70016004E013680B604A605960116010BD96
S1131A8070B50400266BE58F06E0F068083031007D
S1131A9000F00AF820366D1EADB2002DF5D10020FD
S1131AA0E0870020206370BD00B50289012A04D1BB
S1131AB0002202600022426013E00A68002A04D176
S1131AC04B6800221A6003600BE04A68002A04D1C4
S1131AD00A6800235360426003E00A684B6853605D
S1131AE01A600289521E02810020486000200860AA
S1131AF000BD70B582B005000C0006983621615C0B
S1131B000029012909D9891E012907D9891E01291A
S1131B1003D9891E01292DD955E054E03421615C93
S1131B20032906D100909BB22100280000F04CF854
S1131B3003E02265542163522064002D06D0200066
S1131B40FFF79EFF21002800FFF713FF3620205CDB
S1131B50032802D1200000F031FA200000F059F8E7
S1131B600020362160540020352160540020343494
S1131B70207028E03421615C032906D100909BB2D7
S1131B802100280000F020F803E02265542163526C
S1131B902064002D06D02000FFF772FF21002800EA
S1131BA0FFF7E7FE3620205C072802D1200000F072
S1131BB005FA0420362160540020352160540020A9
S1131BC034342070FFE773BD30B50C6BC98F01E06E
S1131BD02034491E89B2002907D0E568A842F7D10C
S1131BE02061626123830398E06130BD00B5002069
S1131BF00BE0C0B20C2141435F4A511800220A8114
S1131C0000220A6000224A60401CC0B24028F0D37F
S1131C1000BD10B504003720205CFFF7D9FB372046
S1131C20205C56490978884203D1200000F023F84B
S1131C3002E0200000F001F810BD00B53721415C3E
S1131C400C2251434C4A51180A89002A08D1012216
S1131C500A810022C260002202610860486009E033
S1131C600A89521C0A810A68C260002202610A6859
S1131C701061086000BD00B53721415C0C2251435E
S1131C803D4A51180A89002A08D101220A810022FA
S1131C90C260002202610860486008E00A89521CA0
S1131CA00A810022C2604A680261D060486000BDB7
S1131CB010B504003720205C0C2148432E49081835
S1131CC02269E168002A13D100290AD10021018187
S1131CD000210160002141603720205CFFF78EFB6A
S1131CE00FE00289521E028100220A61016008E0AD
S1131CF003895B1E0381D160002901D1426000E0A9
S1131D000A61002020610020E06010BD80B51C48FD
S1131D100078012803D100F057FA1A49086001BD80
S1131D2080B517480078002810D100F04DFA154905
S1131D300968401A14490968814201D212490860AD
S1131D4012490968814201D21049086001BD10B5E9
S1131D500400002908D00A0021000D4800F093F87F
S1131D6003203621605402E0022036216054200012
S1131D70FFF79EFF10BD0000600E002086290020A2
S1131D8089290020182900201C290020202900204E
S1131D90B428002010B584B0002402A86B4601AA20
S1131DA000210020FEF76EFC694609880029F5D160
S1131DB0804800780128F1D1FFF790F90400FFF77B
S1131DC021FA7D480068401C7B490860FFF72EFA21
S1131DD02000FFF787F900F028F9040000F080F9EB
S1131DE02018B24909688142D8D2B0490860D5E7C1
S1131DF000B589B00021704A11600021AC4A11601D
S1131E000021AC4A11600021A94A91800021A84A0E
S1131E10D1800021A74A91800021A64AD180A649F9
S1131E200968002902D1A54901802AE0A44909686A
S1131E30A44A1268914202D2A349018021E0A34935
S1131E4009783F2902D3A24901801AE008900B20A7
S1131E5007900020069000200590002004909848E8
S1131E60006803909B4800680290934800680190C2
S1131E709648007800900023974A9849CA48FEF78C
S1131E80C7FA09B000BD30B50368002B09D18A64D4
S1131E9000224A6100228A61C861016001218180B7
S1131EA033E00468036803E09C6C121B1C005B694C
S1131EB0002B21D09C6C9442F6D39C69002C0DD14C
S1131EC08A6400248C614B61C8619C6CA21A9A6478
S1131ED0996101608188491C81800CE09C698A6455
S1131EE08C614B61C8619D6CAA1A9A6499616161A5
S1131EF08188491C818008E08A648C6100224A61DF
S1131F00C86161618188491C818030BDF8B50500D4
S1131F100E001C0092B2042A0CD127480068321A21
S1131F20A248824201D2002A12D10020A864A0480B
S1131F30208016E092B2082A33D11F480068E96C69
S1131F40401A86420ED232001B4800688019E864A9
S1131F5001203621685429005548FFF794FF0020DA
S1131F602080F1BD14480068301AE96C42188F488B
S1131F70824201D2002A10D1EF6C0F480068E96C4C
S1131F80401A310000F0E4FA704330183818E8645D
S1131F900020A86486482080E3E7E86C8019E864A0
S1131FA0D6E7002E01D03200D2E70020A864804892
S1131FB02080D6E7852900204029002010B5C1697A
S1131FC083694269002B1BD1002A08D100220A60D0
S1131FD000228A80002181640021C16123E0002362
S1131FE09361936C846C1B1993640A608A88521EF3
S1131FF08A8000214161002181640021C16112E0D5
S11320005A61002A04D09361936C846C1B19936405
S1132010002282618A88521E8A8000214161002147
S113202081640021C16110BD7047F8B50027FFF736
S113203055F80700FFF7E6F800F0C6F80090002412
S11320401B4D2E68002E25D0B06C401EB06404E0F9
S1132050A888401EA8800020B061B06C002819D167
S1132060641C3620305C012806D1002036217054CF
S11320703000FFF7CEFD06E03620305C052802D1A3
S1132080042036217054706928602E68002EDFD138
S11320900020A880EC8000F097F80099441AFFF71C
S11320A0C5F83800FFF71EF82000F2BD44290020CF
S11320B0AC280020B4280020F4460000127200006E
S11320C0FC460000EC460000137200004B47000081
S11320D011720000F8460000951D00003046000013
S11320E0F8B50027FEF7FAFF0700FFF78BF800F0BA
S11320F06BF8009000242F4D2E68002E47D0B06C52
S1132100401EB06404E0A888401EA8800020B0618E
S1132110B06C00283BD1641C3620305C032817D1F6
S11321200020306500205421705200F04DF83064D6
S11321303000FFF7A5FC3000FFF76BFD00203621CF
S1132140705403203521705400203421705417E05A
S11321503620305C072813D100203065002054213C
S1132160705200F031F830643000FFF789FC04202D
S113217036217054032035217054002034217054CA
S1132180706928602E68002EBDD10020A880EC80E4
S113219000F01AF80099441AFFF748F83800FEF7DF
S11321A0A1FF2000F2BD0000B42600200100FFFFC3
S11321B07E720000B428002080B501F012FA0521D7
S11321C04843FEF7F0FF01BD00207047F8B5060054
S11321D00F00140000255D480078002802D05C48F8
S11321E020803CE05B480078002802D05A482080D8
S11321F035E0BFB23800002805D0022803D00428F7
S11322001CD008281BD1002E02D15448208026E07F
S1132210FEF764FF0500FEF7F5FF23003A0092B2D3
S113222031005D480068FFF771FE2088002809D05E
S1132230FEF7FCFF2800FEF755FF10E0E8E75748DB
S113224020800CE054480068FFF732FDFEF7EEFFF3
S11322502800FEF747FFFFF7EBF900202080F1BDCF
S1132260F8B50025079C394E3678002E02D0384840
S113227020806AE0374D2D78002D02D0364820802A
S113228063E0069D0E272F40BFB23D00002D05D010
S1132290022D03D0042D44D0082D43D1002B0BD1A3
S11322A092B2002A08D189B2002905D180B200284F
S11322B002D12A48208048E0394D2D6880B2E126B9
S11322C03601464389B23C204843301892B2811803
S11322D0694300911E00FA204000290000F038F9FB
S11322E0330018186843FA21890000F031F9009985
S11322F00E18002E27D0FEF7F1FE0500FEF782FF30
S113230023003A0092B2310023480068FFF7FEFD33
S11323102088002809D0FEF789FF2800FEF7E2FE96
S113232013E0C9E71D4820800FE01B480068FFF751
S1132330BFFCFEF77BFF2800FEF7D4FEFFF778F919
S11323400020208001E005482080F1BD8429002080
S11323507572000089290020636D00007E72000000
S113236080B5FEF7EAFD6A4600210E48FEF752FAF0
S11323700D490968491E0C4A11600B490968002976
S113238008D10A480068084908606A4600210848DC
S1132390FEF740FA01BD000060290020255E000020
S11323A0F0460000B42600205C29002058290020B3
S11323B070270020E0B5002022490860304A02A8B6
S11323C001900120009080231B012E492E4800F02B
S11323D03BF8029800B22D49884201D0FEF7A6FED0
S11323E007BD80B50A00002100F001F801BDF0B579
S11323F006000C000025002103E02D02E4B2254371
S1132400491C0429F9D317003000042100F0A0F876
S1132410C9B2002908D003E03470761C7F1E491C21
S1132420002F01D00429F7D302E03560361D3F1F89
S1132430042FFAD202E03470761C7F1E002FFAD1EA
S1132440F0BD0000DC280020F2B582B005001700C2
S11324501E000024FEF742FE0400FEF7D3FE0096A1
S1132460089B3A000299280000F012F8FEF7DEFEFD
S11324702000FEF737FE054809990880F7BD0000E3
S113248020000020742800209C4600001027000033
S113249081B00A6001981018401E48608A6005489F
S11324A00068C8600B6168460248016001B070476B
S11324B000000000DC28002000B5002201E0401CE0
S11324C0521C002804D00378002B01D08A42F6D392
S11324D0100000BD30B5002801D100201EE0002905
S11324E001D100201AE00300002404E00D781D70DF
S11324F05B1C491C641C002B06D0002904D00D78F9
S1132500002D01D09442F1D3002B01D0002901D138
S1132510002003E0944201D20021197030BDF4463A
S1132520002804D4494200F013F840426047404276
S1132530002905D45FD000F00BF8404249426047BF
S1132540494200F005F84942604703460B43E6D48C
S11325500022030A8B420BD203098B4219D243088F
S11325608B422ED2411A00D2014652411046704786
S1132570FF2209023FD012068B4205D31212090230
S11325808B4201D31212090203098B4219D300E0D2
S1132590090AC3098B4201D3CB01C01A52418309F2
S11325A08B4201D38B01C01A524143098B4201D3A0
S11325B04B01C01A524103098B4201D30B01C01ACB
S11325C05241C3088B4201D3CB00C01A5241830845
S11325D08B4201D38B00C01A524143088B4201D372
S11325E04B00C01A5241884200D3401A5241CFD204
S11325F001461046704708B501F0AEFA08BD640004
S11326000021044A11600021034A11800021018045
S113261070470000082900206C2900200021054A89
S113262011600021024A11800021018070470000DE
S11326306E2900200C290020F8B504000D001700B5
S1132640002616480078002802D01548388024E077
S1132650FEF744FD0600FEF7D5FD124820606560D4
S1132660002020620020252160540020A062402028
S11326702421605420000830FFF7C5F9200000F041
S1132680A1F909480088401C07490880FEF7CEFDDF
S11326903000FEF727FD00203880F1BD842900209A
S11326A0E12E00004D55545870290020F6B589B02C
S11326B007001E000024109D75480078002802D0F1
S11326C074482880DFE0002E01D000203060FEF73F
S11326D005FD0400FEF796FD2520385C002817D17F
S11326E06D48006838626C480068373000782421EF
S11326F07854012025217854002E01D0B86A306026
S1132700FEF794FD2000FEF7EDFC00202880BAE0DF
S113271061480068396A884210D12520385C401C21
S113272025217854002E01D0B86A3060FEF77EFD72
S11327302000FEF7D7FC59482880A4E06846008DA5
S1132740000407D5FEF772FD2000FEF7CBFC5448C9
S1132750288098E053480078002807D0FEF766FDEB
S11327602000FEF7BFFC504828808CE0386A0090B7
S11327704948006837300078009937310978884231
S113278022D200983630007800280BD002284AD094
S113279041D304283FD046D3062844D03BD307284E
S11327A041D048E00098FFF783FA3B48006837308F
S11327B00078009937310870009837300078FEF7B8
S11327C007FE0098FFF739FA099B0422390001A893
S11327D0FFF754F8FEF72AFD2000FEF783FCFEF70E
S11327E027FFFEF77BFC0400FEF70CFD2A48006877
S11327F035300078002805D0022834D023D30328AC
S11328002AD039E0002E03D023480068006C3060E1
S11328100020288032E02048006837300078009992
S113282037310870D0E71C480068373001780098C9
S1132830FFF7D0F8C8E7FEF7F9FC2000FEF752FCDA
S1132840124828801FE0002E03D013480068006C53
S113285030605B48288011E0002E01D000203060F9
S1132860634828800AE0002E03D00B480068006CFF
S113287030606048288001E05F482880FEF7D6FC7D
S11328802000FEF72FFC0BB0F0BD00002D6E000001
S113289084290020AE6100006029002082570000D6
S11328A0B061000089290020636D0000F0B583B099
S11328B004000E001700002550480078002802D0BC
S11328C0544838807AE0FEF709FC0500FEF79AFCCC
S11328D051480068216A884207D0FEF7A7FC280007
S11328E0FEF700FC4D48388068E0FFF76DFC01906E
S11328F00198A0622520205C401E252160542520DB
S1132900205C002807D0FEF791FC2800FEF7EAFBC4
S11329104348388052E02000083000900098008935
S113292000280CD100202062002025342070FEF7FE
S11329307DFC2800FEF7D6FB002038803EE03648B8
S11329400068373000782421615C884219D032480D
S11329500068FFF7ADF92420205C2F49096837315E
S113296008702D48006837300078FEF731FD2A489A
S11329700068FFF780F92848006837300078294953
S1132980087000980068816821623720085C24225E
S1132990A05401202522A054019800900023002275
S11329A02000FFF7A6F8FEF741FC2800FEF79AFB8B
S11329B0300401D4FEF73CFE00203880F7BD00004F
S11329C0A961000000B518A1C16100214161174946
S11329D00968002902D10021816105E013490968D1
S11329E081611249096848611049086000BD00000E
S11329F0D9720000C25D00002E6E00008429002000
S1132A0000210A4A11600021094A11800021018035
S1132A10704700000E62000060290020815700000A
S1132A208357000086290020200000001029002080
S1132A30702900200021044A11600021034A1180FA
S1132A400021018070470000142900207229002011
S1132A500021044A11600021034A118000210180F1
S1132A6070470000242900207429002070B5040058
S1132A700025FEF733FB0500FEF7C4FB00206F4979
S1132A80088000206E49086000206E49086000201C
S1132A906D49086000206D49086000206C49086099
S1132AA000206C490881FEF7C1FB2800FEF71AFBE1
S1132AB0FEF714FB0500FEF7A5FB67480668FEF762
S1132AC0B5FB2800FEF70EFB2DE0FEF707FB050023
S1132AD0FEF798FB0020A82170500020AC21705014
S1132AE00020F06600209C2170500020842170504A
S1132AF000208021705200208221705200209021F9
S1132B007050002094217050FFF75EFB8C217050B0
S1132B103000583000218181B4363668FEF786FBD8
S1132B202800FEF7DFFA002ECFD1FEF7D7FA050012
S1132B30FEF768FB49480668FEF778FB2800FEF7B5
S1132B40D1FA0EE0FEF7CAFA0500FEF75BFB30008F
S1132B50203000218181B669FEF768FB2800FEF76A
S1132B60C1FA002EEED1FFF75FFA00F09FFA0020C1
S1132B70208070BD38B50400002569463848FDF74B
S1132B80A8FE68460088002803D068460088208094
S1132B9053E06A4600210220FFF718FB68460088CC
S1132BA0002803D068460088208046E0FEF796FAA5
S1132BB00500FEF727FB00202A490860FEF736FBD4
S1132BC02800FEF78FFA002027490968274A12686F
S1132BD0914205D22548006823490968FFF7B8FCEB
S1132BE0002804D1214800680A21FFF7B1FC6A4695
S1132BF00021FFF7EBFA69461948FDF729FD6846FD
S1132C000088002803D068460088208015E0FEF77D
S1132C1065FA0500FEF7F6FA002009490860114834
S1132C200068AD4908600120AC490870FEF7FEFA5F
S1132C302800FEF757FA0020208031BD78290020B3
S1132C403429002044290020502900200429002090
S1132C501C290020982800203C2900201429002049
S1132C607027002028290020D8460000F0460000E4
S1132C70F0B585B0002503A807E001AA0021984813
S1132C80006802235843FFF7A1FA9448007801280A
S1132C90F3D101A8FFF7EAFE0020009090480068F5
S1132CA090490968884206D28E4800688C490968B0
S1132CB0FFF74EFC00900098002849D1894800682D
S1132CC00A21FFF745FC009042E094202058784305
S1132CD03100FFF73DFC80B28349884200D3A64807
S1132CE0802160528221615A80B2814201D28221C4
S1132CF0605201AB2200A0322100A4312000FDF774
S1132D009DFDFEF7EBF90500FEF77CFAB434246868
S1132D10FEF78CFA2800FEF7E5F9002CD5D1974888
S1132D200078012805D100209449087001A8FFF714
S1132D309DFEFFF749FA0299401A914909688142B8
S1132D4001D28F49086001AA00210098FFF73EFADA
S1132D50FFF73AFA0290FEF747FA8A490860FEF74D
S1132D60BDF90500FEF74EFA8748006887490860F8
S1132D70002085490860FEF759FA2800FEF7B2F9E9
S1132D80824800685449096888423DD25248006824
S1132D907F49884202D2784C01211BE04E480068EA
S1132DA07C49884203D2FA24A4000A2112E04A484A
S1132DB000687949884202D2642464210AE04648C2
S1132DC000687649884203D20A24FA21890001E086
S1132DD00124694940480068FFF7BAFB0100664DC9
S1132DE06A48006844432000FFF7B2FB281A6C4984
S1132DF008806C4800886A490988884207D2684874
S1132E0000886849088002E05B4865490880FDF74E
S1132E10FCFF0026FEF762F90500FEF7F3F96248AD
S1132E200468FEF703FA2800FEF75CF91FE0FEF7DA
S1132E3055F90500FEF7E6F99020205894216050DA
S1132E40002090216050FEF7F1F92800FEF74AF9BE
S1132E50942020583618FEF741F90500FEF7D2F900
S1132E60B4342468FEF7E2F92800FEF73BF9002C9D
S1132E70DDD1002E20D04648864202D23E4F0121A9
S1132E8015E04448864203D2FA27BF000A210EE027
S1132E904148864202D26427642108E03F488642C2
S1132EA003D20A27FA21890001E0012732493000C0
S1132EB0FFF74EFB060001E000270126FEF70EF99E
S1132EC00500FEF79FF938480468FEF7AFF92800BB
S1132ED0FEF708F921E700002C2900208B290020A7
S1132EE0D8460000F04600001127000000B589B064
S1132EF00021254A11600021244A116000212B4A37
S1132F00116000212A4A117000211C4A11702949BC
S1132F100968002902D1284901802AE02749096863
S1132F20274A1268914202D22649018021E02649AB
S1132F3009783F2902D3254901801AE0089003202B
S1132F4007900020069000200590002004901B4864
S1132F50006803901E4800680290164800680190BB
S1132F6019480078009000231A4A1B491B48FDF7B2
S1132F704FFA09B000BD0000102700008A29002084
S1132F803429002004290020282900203029002089
S1132F90801A060000093D00005A62020084D71717
S1132FA076290020782900203C2900202C290020A3
S1132FB08B290020DC4600002B6E0000E446000054
S1132FC0EC4600002C6E00004A4700002A6E000008
S1132FD0E0460000712C00001C460000F82500208B
S1132FE010B58AB0040000206F49086000206F49C2
S1132FF0086000206E4908806E480068002808D0E8
S11330006D4800686B490968FFF7A2FA6B490860CC
S113301006E0694800680A21FFF79AFA67490860E0
S11330206648006866490860002066490860002018
S113303065490860220065496548FFF7FDFA208864
S1133040002831D163480068002802D162482080FA
S11330502AE06248006862490968884202D26148ED
S1133060208021E0604800783F2802D35F48208018
S11330701AE008940B200790002006900020059089
S11330800020049055480068039059480068029055
S11330905048006801905448007800900023554A35
S11330A055495648FDF7B4F90AB010BD704700B54C
S11330B03E490968814207D101693C4A11600029EF
S11330C008D000224A6105E0416902690A61002AC8
S11330D000D0516101212622815400210161002187
S11330E0416133480088401E3149088000BD00001A
S11330F070B584B002A80AE0FFF766F8041B00F07C
S11331004BF831480068A04201D22F4804606B4656
S113311001AA00210020FDF7B5FA060000F030F8FE
S1133120FFF752F8040027480068401C254908604E
S11331301E48056811E02800FFF7B9FF0320262187
S11331406854AA681000002802D0E9682800904753
S113315035006846FEF7EEFA6846002DCCD0684686
S1133160FEF7B2FA68462E69A869401EA861A869EC
S11331700028EDD1A88C0228DDD1286AA861E0E7F7
S1133180E0B501A8009002AB002200211048FFF72F
S11331908DFA01A807BD000080B56A4600210C48DD
S11331A0FFF784FB684601BD482900204C29002014
S11331B07C29002004470000F04600005829002024
S11331C05C29002054290020502900207446000066
S11331D02C28002008470000477300001047000017
S11331E0EC460000487300004C47000046730000A2
S11331F00C470000F1300000F0450000702700206B
S113320043484449444A1000444A1000444A1100C7
S1133210444A1000444A454B1800454B1800454B9E
S11332201800454B1800454B1A00454B1A00454BF6
S11332301800454B1A00454B1800454B1A00454BE6
S11332401800454B1A00454B1A00454B1A00454BD4
S11332501A00454B1800454B1800454B1800454BC8
S11332601A00454B1800454B1800454B1A00454BB6
S11332701A00454B1A00454B1A00454B1A00454BA2
S11332801A00454B1A00454B1800454B1800454B96
S11332901800454B1800454B1A00454B1A00454B86
S11332A01A00454B1800454B1800454B1800454B78
S11332B01A00454B1A00454B1A00454B1900454B63
S11332C01A00454B1800454B1800454B1800454B58
S11332D01800454B1800454B1800454B1800454B4A
S11332E01A00454B1800454B1800454B1A00454B36
S11332F01A00454B1800454B1800454B1A00454B26
S11333001800454B1800454B1A00454B1A007047EE
S11333104D470000244700004E4700004F4700007F
S11333201C47000050470000C04400005147000003
S11333305247000053470000544700005A3B000026
S11333403A3D0000554700005C4500005647000028
S1133350CE45000057470000DA450000284700002A
S11333602A470000944400005847000059470000D1
S11333705A4700002C4700005B4700005C470000F0
S11333802E47000030470000324700003447000059
S11333903647000038470000044400005D47000041
S11333A05E4700005F470000604700003A470000A6
S11333B061470000E84400006247000063470000E2
S11333C064470000654700003C4700003E4700009A
S11333D02047000066470000674700006847000078
S11333E0694700006A4700006B4700006C47000013
S11333F06D470000404700006E4700006F47000023
S11334004247000044470000704700007147000035
S11334103444000072470000734700004647000030
S1133420484700000F4810481048114811481248F6
S113343012481348134814481448154815481648A8
S113344016481748174818481848194819481A4878
S11334501A481B481B481C481C481D481D481E4848
S1133460704700BF18470000B4460000B84600008B
S1133470BC460000C0460000C4460000C846000028
S1133480CC460000FE250000D0460000D4460000D3
S11334904A470000D8460000DC460000E046000031
S11334A0E4460000E8460000EC460000F046000058
S11334B04B470000F4460000F8460000FC460000BC
S11334C0004700004C470000044700000847000084
S11334D00C47000010470000144700001C481D4919
S11334E00160002080F309881B48016881F3088883
S11334F01A481B49016062B6FEE718481849016082
S11335007047164816490160704772B6EFF3098098
S1133510002805D01038F0C0103812490968086036
S113352000B51148804701BC8646104810490A7806
S113353002700C480F490A6802601068F0C880F3F2
S11335400988704604210843864662B67047000025
S113355020ED00E00000FF00E028002004ED00E082
S11335600000001060290020AB0E00008629002016
S1133570872900206429002080B500F010FB8E48C4
S11335800068F821890101438B4801608B488C490C
S113359008608C480068042101438A480160894816
S11335A000680221014387480160864800680121C0
S11335B001438448016000F014F88E49FEF7C8FF07
S11335C08D4908608C4800688B49086000F015F844
S11335D000F08DF800F0F8F800F020F900F069F838
S11335E001BD8648704780B5FFF7FBFF8449096831
S11335F0FEF7AEFFFDF7C0FC01BD10B582B000249C
S1133600FDF76CFD0400FDF7FDFD7E487E49086072
S113361094207E49087098207D4908709848007865
S1133620C0B21021084000090028F7D1944800785E
S1133630C0B280084007400F009000980228F5D1DE
S11336400320744908707820734908708C48007806
S113365020210840C0B2400901214140C9B20029DB
S1133660F4D18748007840210840C0B28009012184
S11336704140C9B20029F4D1654800788006800E23
S1133680634908707E480078C0B280084007400F44
S1133690009000980328F5D17A48006880214902F7
S11336A0014378480160FDF7C1FD2000FDF71AFDD4
S11336B013BD00B574480078F121014072480170CF
S11336C05248007801210143504801705048007865
S11336D0022101434E480170694800780100C9077E
S11336E0C90F01204840C0B20028F5D100BD80B503
S11336F080204000654908608020400064490860DB
S1133700644800682021014362480160A3480068BE
S1133710802189050143A1480160002000F001F8DF
S113372001BD00B5C0B2002811D0022807D01CD2B8
S11337309B480068202101439948016000BD9948D5
S1133740006880218905014396480160F6E79448A2
S1133750006820210143924801609248006880215A
S1133760890501438F480160E8E7E7E700B5C0B287
S1133770002811D0022807D01CD28B4800682021D1
S113378001438948016000BDBC4800688021890567
S11337900143BA480160F6E78348006820210143E9
S11337A081480160B5480068802189050143B34818
S11337B00160E8E7E7E700003880044080841E00E9
S11337C014E000E010E000E0FF20001DAC490860B8
S11337D0FF20001DAB490860AB48006808218843FE
S11337E0A9490860A8480068A8490140A6480160A2
S11337F07047000040420F00BC280020006CDC022F
S1133800F0460000000001104480044001400640DE
S113381000400640044006400540064080B50020B4
S1133820C54948700920C44988700A20C249887370
S11338306420C14988806420BF490882BF48006869
S113384020210143BD4801600020BD4908600020DB
S1133850BC490860BC491A2000F08CF91A2000F019
S113386081F9BA480068BA490143B8480160B748C9
S1133870006880210143B548016000F00DF801BDE6
S113388006400640048004400840064014C004403A
S113389074D00440D4F00F4010B5AC480068042143
S11338A00143AA480160A948006880218843A749C8
S11338B00860A6480068C00601D5012000E0002089
S11338C0A249096810229143A04A11609F490968DE
S11338D0402291439D4A11609C49096880220A4311
S11338E09A490A60002122E0C9B20C224A43924B51
S11338F09A1892781207974B1A60964A1268802396
S1133900DB031343934A1360904A12685207FBD5B2
S11339108E4A1268042313438C4A13608D4A12683A
S1133920C9B20C234B43844CE3185A81491CC9B2D5
S11339300229D9D3854A126880239A43834B1A609B
S1133940824A126840231343804A1360C0B200289D
S113395006D07E480068102202437C48026005E0DD
S11339607A48006810229043784A106077480068CB
S11339708022024375480260C9B20C2041436E485C
S113398040188078000773490860724800688021F5
S1133990C90301436F48016010BD000014F10F40DA
S11339A0C4F00F4004F10F40CCF00F4030B50400D8
S11339B00D006148407801285FD100205E494870BD
S11339C05D4880885C490989884205D35A48008A41
S11339D05949898A884240D257480189642048431A
S11339E055490989544A928A8918FEF7AEFD52490D
S11339F008735148818A642048434F4909894E4AD3
S1133A00928A8918FEF7A1FD4B4908764A48007B43
S1133A10282148436421FEF79BFD474948734648E3
S1133A20007E282148436421FEF792FD42494876EE
S1133A3064204149097B401A3F49097E401802210C
S1133A40FEF783FD287028203B49497B401A3A49F8
S1133A50497E4018400820700FE000203649087362
S1133A600020354908760020334948730020324944
S1133A704876002028700020207030BD0CF10F40E3
S1133A800CB0044030B0044094F00F40FFEFFFFF4F
S1133A9000B50120284948702C48006804210143DE
S1133AA02A4801602B480068234909780C225143B5
S1133AB0214A5118C880204800780C2148431E49E7
S1133AC00818C0881C4909780C2251431A4A511815
S1133AD04989401A00B2002808D5002016490978FF
S1133AE00C225143144A5118088106E012490978FE
S1133AF00C225143104A511808810F4800780028BD
S1133B0005D10D480078401C0B49087002E00020E4
S1133B1009490870084800780C21484306490818E8
S1133B20807800070B4908600A4800688021C903AF
S1133B3001430848016000BD582800203880044033
S1133B4040A0044044A00440913A000000500440C6
S1133B50608B8710045004407047280080B5FDF73F
S1133B60B9FA01BD80B56A2803D21030C0B200F0A2
S1133B70E5F801BD70B505000C0000266A2D0DD2D4
S1133B80FDF7ACFA0600FDF73DFB04204543684809
S1133B904451FDF74BFB3000FDF7A4FA70BD10B59E
S1133BA0002404E063492000FFF7E4FF641C6A2C4E
S1133BB0F8D310BD80B5002000F09CF801BD80B59D
S1133BC0012000F097F801BD80B5022000F092F8C2
S1133BD001BD80B5032000F08DF801BD80B504203F
S1133BE000F088F801BD80B5052000F083F801BD20
S1133BF080B5062000F07EF801BD80B5072000F0F6
S1133C0079F801BD80B5082000F074F801BD80B5D5
S1133C10092000F06FF801BD80B50A2000F06AF8B1
S1133C2001BD80B50B2000F065F801BD80B50C2006
S1133C3000F060F801BD80B50D2000F05BF801BD17
S1133C4080B50E2000F056F801BD80B50F2000F0BD
S1133C5051F801BD80B5102000F04CF801BD80B5CD
S1133C60112000F047F801BD80B5122000F042F8A1
S1133C7001BD80B5132000F03DF801BD80B51420CE
S1133C8000F038F801BD80B5152000F033F801BD0F
S1133C9080B5162000F02EF801BD80B5172000F085
S1133CA029F801BD80B5182000F024F801BD80B5C5
S1133CB0192000F01FF801BD80B51A2000F01AF891
S1133CC001BD80B51B2000F015F801BD80B51C2096
S1133CD000F010F801BD80B51D2000F00BF801BD07
S1133CE080B51E2000F006F801BD80B51F2000F04D
S1133CF001F801BD38B504000025FDF7EFF9050012
S1133D00FDF780FAFDF72BFCFDF790FA2800FDF78C
S1133D10E9F96A2C07D204204443054800590100FC
S1133D20002900D08047FDF729FC31BD00000000C8
S1133D3060210020393D00007047040070B5050083
S1133D400026EDB2280000280ED0401E02280CD90F
S1133D50801F032808D9001F07D0801E04D0401EEE
S1133D6003D0401E02D012E03CE03BE0FDF7B6F980
S1133D700600FDF747FA1C480068012101431A4870
S1133D800160FDF753FA3000FDF7ACF92AE017485B
S1133D900068401CC006C00E202148431030EDB21C
S1133DA0C0B285421ED2EDB2280010382021FEF7A1
S1133DB0CCFB0400EDB2103D28002021FEF7C5FB2A
S1133DC00D00FDF78BF90600FDF71CFA0120A84051
S1133DD0E4B204214C4306496050FDF727FA300051
S1133DE0FDF780F970BD000010E000E004E000E0A1
S1133DF000E100E080B5894800688021090301439F
S1133E0086480160864800688549086085480068DE
S1133E1084490860844800688349086083480068CE
S1133E208249086082480068814908609A480068AD
S1133E30994908609948006898490860984800685A
S1133E409749086097480068964908609648006852
S1133E50954908609548006894490860944800684A
S1133E6093490860934894490860944894490860C9
S1133E70944895490860C020000394490860944818
S1133E809449086094480068FF2188430121014354
S1133E909148016091480068FF2188430221014351
S1133EA08E4801608E4800680002000A8021C9041F
S1133EB001438B4801608A4800688A490140802098
S1133EC000030843864908607B4800688021014359
S1133ED07948016000F0AEF801BD70B5F0242042CD
S1133EE00CD1F024214209D1F024224206D1F0243D
S1133EF0234203D1049C71252C4201D000208BE085
S1133F00794D2E68794D3540C0B2794E365C360213
S1133F102E43754D2E60724D2E68744D3540C0B2DF
S1133F20744E305C000228436D4D2860724800686E
S1133F300002000AC9B26E4D6D5C2D0605436E4841
S1133F4005606E480068FF25A843C9B2694D695CE5
S1133F5001436A4801606148006864490140D2B283
S1133F606348805C000208435C4908605E4800685E
S1133F705C490140D2B25F48805C000408435A495E
S1133F8008605E48006857490140DBB25848C05C8D
S1133F900004084359490860584800680002000AB0
S1133FA0DBB25449C95C0906014354480160E4B2D8
S1133FB0022020404008002806D04948006880219B
S1133FC04900014346480160E4B2042020408008CF
S1133FD0002805D049480068012101434748016091
S1133FE0E4B208202040C008002806D03E480068FB
S1133FF08021490201433C480160E4B2802004402E
S11340002000C009002806D03C48006880214904EB
S113401001433A480160012070BD0000388004402B
S113402000C0044010D004405CA0044058A00440E8
S113403044B004402C4800682C4901402A480160DF
S11340402748006829490140254801602A4800683A
S11340500002000A2849086028480068FF218843B4
S1134060264908601D480068204901401B4801603A
S11340701D4800681B4901401B4801601F48006837
S1134080184901401D4801601C4800680002000AEC
S11340901A4908607047000054A004401CA0044062
S11340A020A0044014D0044048B0044028A0044098
S11340B02CA004406320828F00300540800D0E0048
S11340C010300540600130001430054018300540C0
S11340D0000110001C3005404830054054300540B4
S11340E030300540FFFF00FF44300540FF00FFFF74
S11340F00000002010000020243005402830054036
S113410000B58BB0FDF70AF8FEF754F900F0E2F8B9
S113411009A9891C5C48FDF71CF8FFF71FFD09A8D5
S1134120FDF784F909A80890032007900020069061
S11341300020059000200490802003900C20029021
S113414052480190022000900023514A514952489C
S1134150FCF75EF909A8FDF729FBFEE7E0B5FFF7D8
S11341600BFAFFF740FAFFF745FE02A8FEF702FD3F
S1134170FDF71CF800F01DF800F01CF80220FFF712
S1134180F5FA02A8019000200090C8230022002123
S11341900020FEF765F80120FFF7E8FA02A8019075
S11341A000200090C823002200210020FEF758F8C8
S11341B0E4E7704700B58BB009A808900320079086
S11341C00020069000200590002004908020039099
S11341D00C20029031480190032000900023304AC3
S11341E030493148FCF714F909A8089003200790D6
S11341F00020069000200590002004908020039069
S11342000C20029029480190042000900023284AA1
S113421028492948FCF7FCF80BB000BDE0B50020A4
S11342202649087000202649087000202549087096
S11342300020254908700020009023480378214875
S113424002781F4801781D480078FFF746FE02A84F
S1134250019000200090FA235B000022002100203E
S1134260FDF7FEFFE7E7E0B518491948FFF79EFBA5
S113427002A8019000200090322300220021002097
S1134280FDF7EEFFF0E70000444600006011002057
S11342905D41000054460000082300206013002004
S11342A01D42000084460000C42300206015002045
S11342B06742000064460000802400207E2900201C
S11342C07F290020802900208129002083290020C3
S11342D08229002080B5012000F001F801BD38B525
S11342E004000025FCF7FAFE0500FCF78BFF0448E8
S11342F00460FCF79BFF2800FCF7F4FE31BD0000CE
S1134300D82800200807060605050505040404044A
S11343100404040403030303030303030303030365
S11343200303030302020202020202020202020265
S11343300202020202020202020202020202020259
S11343400202020201010101010101010101010155
S11343500101010101010101010101010101010149
S11343600101010101010101010101010101010139
S11343700101010101010101010101010101010129
S11343800101010100000000000000000000000025
S11343900000000000000000000000000000000019
S11343A00000000000000000000000000000000009
S11343B000000000000000000000000000000000F9
S11343C000000000000000000000000000000000E9
S11343D000000000000000000000000000000000D9
S11343E000000000000000000000000000000000C9
S11343F000000000000000000000000000000000B9
S113440000000000000000000000000000000000A8
S11344100000000000000000000000000000000098
S11344200000000000000000000000000000000088
S11344300000000000000000000000000000000078
S11344400000000000000000000000000000000068
S11344500000000000000000000000000000000058
S11344600000000038B401210268001D002A0FD0AA
S11344700368C318446808300C4202D04D466D1ED0
S113448064191D6825601B1D241D121FECD0F8E75C
S113449032BC704700000000000000000000000073
S11344A00000000000000000000000000000000008
S11344B000000000000000000000000000000000F8
S11344C000000000000000000000000000000000E8
S11344D000000000000000000000000000000000D8
S11344E000000000000000000000000000000000C8
S11344F000000000000000000000000000000000B8
S113450000000000000000000000000000000000A7
S113451010B5074979441831064C7C44163404E03C
S1134520081D0A68891888470100A142F8D110BD06
S11345300800000028000000BBCBFFFF702900002A
S113454020000020000000001DFFFFFF20000000ED
S113455070BBFFFF0000002000000000000000000E
S11345600000000000000000000000000000000047
S113457000000000000000000000000080B50020E2
S11345800249088000F00AF801BD000000810440DF
S113459000B5FEE700B5FEE700B5FEE7C046C0463D
S11345A0C046C04600F000F800F00BF8002801D027
S11345B0FFF7AEFF0020C046C046FFF7A1FD00F0A4
S11345C002F80120704780B500F002F801BD200018
S11345D00746384600F002F8FBE7100080B5C046F5
S11345E0C046024A11001820ABBEFBE726000200B9
S11345F075432F4F532D4949492054696D657220E5
S11346005461736B0000000075432F4F532D4949CB
S1134610492049646C65205461736B0075432F4FC6
S1134620532D4949492053746174205461736B00BC
S113463075432F4F532D494949205469636B2054C6
S113464061736B004D4B4C34365A323536564C4CF4
S11346503400000053746172747570205461736B7C
S11346600000000054534920536C6964657220545F
S113467061736B004F5320546D72204D75746578CF
S1134680000000004C4344205461736B00000000A0
S11346905461736B2053656D0000000048656170C0
S11346A0000000005461736B205100003F5461739B
S11346B06B000000601700200C0000008000000068
S11346C000020000601900208000000000020000C9
S11346D040060000200800200A000000601B0020A3
S11346E00C000000800000000002000040000000F8
S11346F0E8030000601D00200C00000080000000A2
S1134700000200000A000000601F00200C000000EE
S113471080000000000200004010000078563412AF
S113472000030000E10600000C0010002C00200033
S11347300C002000400008000400300028000C0099
S11347400100BC0008003000C2763E3D3E0100017D
S11347500101010101000101010101000101010147
S11347600100010101010401010101010101010133
S1074770010101013D
S903459D1A
